:100000000C945D000C9485000C9485000C94A11058
:100010000C94A1100C94A1100C9485000C948500F4
:100020000C9485000C9485000C9485000C9485003C
:100030000C9485000C9485000C9485000C9485002C
:100040000C94FF0F0C9485000C946F100C944910C5
:100050000C9485000C9485000C9485000C9485000C
:100060000C9485000C94850000000008000201003B
:100070000003040700000000000000000000000072
:10008000250028002B0000000000240027002A0083
:10009000040404040404040402020202020203032E
:1000A0000303030301020408102040800102040836
:1000B0001020010204081020AB1011241FBECFEF46
:1000C000D8E0DEBFCDBF12E0A0E0B1E0EAE4F8E2A4
:1000D00002C005900D92A03CB107D9F724E0A0EC36
:1000E000B2E001C01D92A230B207E1F710E0CDE509
:1000F000D0E004C02197FE010E941614CC35D10730
:10010000C9F70E946B110C9423140C9400008CBD51
:100110009DBD089590E0FC01EC55FF4F2491805760
:100120009F4FFC018491882399F090E0880F991FDC
:10013000FC01EA57FF4FA591B491FC01E458FF4F31
:10014000859194918FB7F894EC91E22BEC938FBF4B
:1001500008953FB7F8948091C9029091CA02A09186
:10016000CB02B091CC0226B5A89B05C02F3F19F059
:100170000196A11DB11D3FBFBA2FA92F982F882727
:10018000BC01CD01620F711D811D911D42E0660F02
:10019000771F881F991F4A95D1F708958F929F92D4
:1001A000AF92BF92CF92DF92EF92FF924B015C0130
:1001B0000E94A9006B017C010E94A9006C197D09B5
:1001C0008E099F09683E734081059105A8F321E0DF
:1001D000821A9108A108B10888EEC80E83E0D81EE3
:1001E000E11CF11C81149104A104B10429F7FF90D2
:1001F000EF90DF90CF90BF90AF909F908F90089539
:10020000AF92BF92CF92DF92EF92FF920F931F9324
:10021000CF93DF936C017B018B01040F151FEB0162
:100220005E01AE18BF08C017D10759F06991D60119
:10023000ED91FC910190F081E02DC6010995892B8B
:1002400079F7C501DF91CF911F910F91FF90EF904A
:10025000DF90CF90BF90AF900895FC01538D448DF7
:10026000252F30E0842F90E0821B930B541710F061
:10027000CF96089501970895FC01918D828D98176E
:1002800061F0A28DAE0FBF2FB11D5D968C91928D46
:100290009F5F9F73928F90E008958FEF9FEF089577
:1002A000FC01918D828D981731F0828DE80FF11D40
:1002B000858D90E008958FEF9FEF0895FC01918D5B
:1002C000228D892F90E0805C9F4F821B91098F7354
:1002D0009927089580EF92E00E945E0121E0892B2A
:1002E00009F420E0822F089580E090E0892B29F026
:1002F0000E946A0181110C9400000895FC01A48DF4
:10030000A80FB92FB11DA35ABF4F2C91848D90E037
:1003100001968F739927848FA689B7892C93A0891A
:10032000B1898C91837080648C93938D848D9813A4
:1003300006C00288F389E02D80818F7D8083089537
:10034000EF92FF920F931F93CF93DF93EC0181E025
:10035000888F9B8D8C8D98131AC0E889F9898081CC
:1003600085FF15C09FB7F894EE89FF896083E889FF
:10037000F98980818370806480839FBF81E090E0F1
:10038000DF91CF911F910F91FF90EF900895F62E7E
:100390000B8D10E00F5F1F4F0F731127E02E8C8D18
:1003A0008E110CC00FB607FCFACFE889F98980815D
:1003B00085FFF5CFCE010E947E01F1CFEB8DEC0FD2
:1003C000FD2FF11DE35AFF4FF0829FB7F8940B8F7A
:1003D000EA89FB8980818062CFCFCF93DF93EC01E4
:1003E000888D8823B9F0AA89BB89E889F9898C911D
:1003F00085FD03C0808186FD0DC00FB607FCF7CFD9
:100400008C9185FFF2CF808185FFEDCFCE010E94D8
:100410007E01E9CFDF91CF910895FC0120812EBDAF
:100420009B012150310941F051810DB407FEFDCFF0
:100430004EB55EBD4193F5CF61507109860F971F90
:100440000DB407FEFDCF2EB5FC0120830895E09189
:10045000EA02F091EB0280819091E902892B80837E
:100460000895E091EA02F091EB0290818091E90217
:1004700080958923808308958EBD00000DB407FE0A
:10048000FDCF8EB50895AF92BF92CF92DF92EF92DB
:10049000FF920F931F93CF93DF93CDB7DEB72897CB
:1004A0000FB6F894DEBF0FBECDBF8C017B016A0191
:1004B0008091ED028333E1F45801A40EB51EA0161D
:1004C000B10609F46FC00E94310280EF0E943C0225
:1004D000812F0E943C02802F0E943C020F5F1F4F21
:1004E000F70181917F010E943C020E942702E7CF21
:1004F0005B01A40EB51E8433C1F40E94310219833E
:100500000A838D2D80688B83CC8264E070E0CE01FD
:1005100001960E940D02AE14BF0409F441C0F70118
:1005200081917F010E943C02F6CF0E9431020F3F71
:10053000110509F028F419820A8384E08B830CC02A
:1005400017FD17C019820A8333E0169507953A956F
:10055000E1F7007E0C600B8386E0C816D104A0F59D
:10056000F701DE011496EA15FB0599F081918D9350
:10057000FACFC80126E0969587952A95E1F7807E07
:1005800019830A830115104C10F48461D7CF8C6154
:10059000D5CFB6016D5F7F4FCE0101960E940D024F
:1005A0000E942702C60128960FB6F894DEBF0FBE40
:1005B000CDBFDF91CF911F910F91FF90EF90DF9012
:1005C000CF90BF90AF90089563E070E0CE010196A8
:1005D0000E940D02F70181917F010E943C02AE143E
:1005E000BF04C1F7DDCFCF93DF931F92CDB7DEB746
:1005F000898341E050E0BE016F5F7F4F90E080E073
:100600000E9443020F90DF91CF91089590E02091D6
:10061000ED02233339F40C96982F990F990F990F07
:1006200080E008954896F8CF0895CF93DF931F9206
:10063000CDB7DEB76983DC01ED91FC910280F381D7
:10064000E02D41E050E0BE016F5F7F4F09950F90B4
:10065000DF91CF910895FC01818D928D0895CF9304
:10066000DF931F92CDB7DEB76983DC01ED91FC917A
:100670000480F581E02D41E050E0BE016F5F7F4FC7
:1006800009950F90DF91CF9108959B0140E050E0D4
:10069000BA01DC01ED91FD91CD014E0F5F1F611D8F
:1006A000711D225031092230310598F7CB01AA275C
:1006B000BB2766277727840F951FA61FB71FAD019D
:1006C00066277727840F951FA61FB71F80959095E3
:1006D0000895DA01E091EE02F0E0FE2FEE27E60F3A
:1006E000F71F90E0982F8827A901BD018E0F9F1F4B
:1006F0000C944302CF93DF9300D0CDB7DEB779835C
:100700006A8322E030E0AE014F5F5F4F64E070E04B
:100710000E9469030F900F90DF91CF910895CF93BE
:10072000DF9300D0CDB7DEB779836A8322E030E073
:10073000AE014F5F5F4F60E170E00E9469030F9070
:100740000F90DF91CF910895AB0124E030E06CE091
:1007500070E00C946903CF93DF931F92CDB7DEB79F
:100760002091EE0230E0322F2227260F371F90E033
:10077000982F8827498341E050E0BE016F5F7F4F8B
:10078000820F931F0E9443020F90DF91CF91089533
:10079000462F62E070E00C94AB03FC0184859585E4
:1007A0000895FC0184899589089524E531E0FC01D0
:1007B00031832083FB014089518962897389FC015F
:1007C00042835383648375830895DC01ED91FC912A
:1007D000048CF58DE02D09940895FF920F931F93DB
:1007E000CF93DF93EB01FC01178A168A2A8121112E
:1007F00009C02B81211106C02C81211103C02D813C
:100800002223E1F041155105C9F08A01FC01F08C69
:1008100080E591E00E948700BE016E5F7F4F8F2DC3
:100820000E94A403B8018F2D0E948F0381E090E005
:10083000DF91CF911F910F91FF90089580E0F7CF46
:1008400090E080E00895AF92BF92CF92DF92EF9256
:10085000FF920F931F93CF93DF9300D000D0CDB7BB
:10086000DEB78C016B017A018091ED028333E9F4EC
:100870005B016801C40ED51EC016D106A9F10E9405
:1008800031028FE00E943C02812F0E943C02802FA7
:100890000E943C020F5F1F4F80E00E943C02F50166
:1008A00081935F010E942702E7CF843369F50E949C
:1008B000310219830A838F2D8F778B83EC8264E05A
:1008C00070E0CE0101960E940D02A70170E060E089
:1008D000C6010E941C14E114F10421F0B701C60105
:1008E0000E940D020E942702C7010F900F900F90E7
:1008F0000F90DF91CF911F910F91FF90EF90DF90BC
:10090000CF90BF90AF9008950E9431020F3F110524
:1009100009F030F419820A831B8263E070E0D1CFC2
:1009200017FD0BC019820A8333E0169507953A9597
:10093000E1F7007E08600B83F0CFC80126E09695B2
:1009400087952A95E1F7807E19830A830115104C5B
:1009500018F480618B83E1CF8861FCCFCF93DF9364
:100960001F92CDB7DEB72091EE0230E0322F222762
:10097000260F371F90E0982F882741E050E0BE01F6
:100980006F5F7F4F820F931F0E94230489810F9016
:10099000DF91CF910895CF93C82F462F61E070E08B
:1009A0000E94AB0361E070E08C2F0E94AE048111C5
:1009B000F9CFCF910895CF93C82F80E591E00E94A1
:1009C000870060E170E08C2FCF910C94CB04CF9323
:1009D000DF93EC01888D843020F40E94DB0484E0F6
:1009E000888FDF91CF910895CF93DF93EC018C81B5
:1009F000843020F40E94DB0484E08C83DF91CF916B
:100A00000895CF93FC01C08D80E591E00E9487009E
:100A100060E270E08C2F0E94CB0462E070E08C2FCB
:100A20000E94AE0484FD14C062E070E08C2F0E942E
:100A3000AE0483FF08C068E18C2F0E94C80380E0E9
:100A400090E0CF91089580E591E00E948700E5CF86
:100A500060E18C2F0E94C80381E0F2CF0F931F93B7
:100A6000CF938C01C0E0F80182819381892B29F01A
:100A7000CF5FC430C1F780E00CC080E591E00E94F8
:100A8000870063E070E08C2F0E94AE04843181F710
:100A900081E0CF911F910F910895CF93DF931F9223
:100AA000CDB7DEB741E050E0BE016F5F7F4F90E011
:100AB00080E00E94230489810F90DF91CF910895F7
:100AC000CF93DF93C4E1D0E00E944D05882361F00D
:100AD00061E070E080E090E00E94CE002197A1F7F5
:100AE00080E0DF91CF91089581E0FBCFCF92DF923C
:100AF000EF92FF920F931F93CF93DF93CDB7DEB7A3
:100B0000C454D1090FB6F894DEBF0FBECDBFFC01AF
:100B100082819381A481B58123968CAF9DAFAEAFC6
:100B2000BFAF239721E023962FAF239723964CAD99
:100B30005DAD6EAD7FAD23974BAB5CAB6DAB7EAB6C
:100B400089AF9AAFABAFBCAF8DA79EA7AFA7B8AB2D
:100B500028AB4DA55EA56FA578A94FA358A769A797
:100B60007AA72EAB4BA95CA96DA97EA949A35AA36C
:100B70006BA37CA38B8F9C8FAD8FBE8F44E551E020
:100B80005C8B4B8B3FEF3D8B3E8B3F8B188E5E8794
:100B90004D872AA7CFA0D8A4E9A4FAA4CF86D88AE3
:100BA000E98AFA8A2CA309A11AA12BA13CA10987E1
:100BB0001A872B873C875A8349838B839C83AD8319
:100BC000BE838091EF028111CBC060E372E080E0D0
:100BD00090E00E94CE00DFB6F8940AE910E04EEAF9
:100BE000E42E40E0F42E8091EC02811142C0F80125
:100BF0008491F7019491E82FF0E0EE0FFF1FEA5780
:100C0000FF4FA591B4918C91982321F5E2E7F0E094
:100C10008491F7019491F80124912223D9F088233B
:100C200059F0833009F4DDC008F0D0C0813009F4F8
:100C3000DEC0823009F4DFC0E22FF0E0EE0FFF1FCC
:100C4000E458FF4FA591B4918FB7F8942C91922B53
:100C50009C938FBF8AE00E948A008CB580618CBD16
:100C60008CB580648CBD8DE00E948A008BE00E9470
:100C70008A008091EC028F5F8093EC02DFBEF80166
:100C80000491E02FF0E0EE0FFF1FE458FF4F859135
:100C900094919093EB028093EA02F701E490E09242
:100CA000E9028AE00E948A000E94270280E591E022
:100CB0000E94870084E38093ED0280E80E94F302A3
:100CC0000E946005882309F4A3C088E00E94F30213
:100CD0000E944D05883009F09BC080E10E94F3021C
:100CE0000E944D05803109F093C080E00E94F3021C
:100CF0000E944D05182F81118BC041E050E0BE01CC
:100D00006D5B7F4F8FE190E00E94230424968FADAE
:100D10002497833009F07CC080E48093EE0242E0A7
:100D20006EE170E0812F0E94AB0342E06FE170E062
:100D3000812F0E94AB031F5F143089F740E06EE102
:100D400070E0812F0E94AB0340E06FE170E0812FE3
:100D50000E94AB031F5F183089F781E08093EF0298
:100D600080E591E00E94870046E050E062E071E09B
:100D700089E090E00E94430244E050E0BE016D5FD4
:100D80007F4F8FE090E00E94430244E050E0BE01BC
:100D9000615F7F4F81E090E00E94430244E050E0B9
:100DA000BE016B5E7F4F85E090E00E94430281E0D0
:100DB0008C8789859A85AB85BC858093B303909396
:100DC000B403A093B503B093B60391C08730B1F0DC
:100DD0008830D1F0843009F02FCF809180008F7D52
:100DE00003C0809180008F778093800025CF84B5E9
:100DF0008F7784BD21CF84B58F7DFBCF8091B000EC
:100E00008F778093B00018CF8091B0008F7DF9CF9D
:100E100087E38093ED0280E80E94F3020E94600560
:100E2000882339F188E00E94F3020E944D05883042
:100E300001F580E10E94F3020E944D05182F8031D8
:100E4000C1F480E00E94F3020E944D05811111C09F
:100E500041E050E0BE016D5B7F4F89E390E00E946E
:100E6000230424968FAD2497843019F41093EE0256
:100E700074CF83E38093ED0280E80E94F3020E9426
:100E80006005882391F180E10E94F3020E944D05E4
:100E9000803159F582E10E94F3020E944D058231B2
:100EA00021F580E00E94F3020E944D0581111DC0D2
:100EB00084E08093EE0215E525961FAF259741E06B
:100EC00050E0BE016C5B7F4F8BE190E00E944302DB
:100ED00024961FAF249741E050E0BE016D5B7F4F29
:100EE0008AE190E00E94430238CF1092ED02CC5B81
:100EF000DF4F0FB6F894DEBF0FBECDBFDF91CF91AD
:100F00001F910F91FF90EF90DF90CF9008951F9366
:100F1000CF93DF931F92CDB7DEB7FC01108D143055
:100F200020F5818D928D892B01F180E591E00E9461
:100F30008700812F0E94060327E0129FF0011124F1
:100F4000E353FD4F22813381377041E050E0BE0111
:100F50006F5F7F4F820F931F0E942304898190E06F
:100F60000F90DF91CF911F9108958FEF9FEFF8CFF2
:100F7000DA01E091EE02F0E0FE2FEE27E60FF71F18
:100F800090E0982F8827A901BD018E0F9F1F0C9418
:100F900023048F929F92AF92BF92CF92DF92EF92F3
:100FA000FF921F93CF93DF93CDB7DEB72C970FB689
:100FB000F894DEBF0FBECDBF2091ED0214E02223D6
:100FC00039F16B017C0180E591E00E9487005E01B0
:100FD00027E0A20EB11C450110E063E070E0812F14
:100FE0000E94AE04F40181934F01882349F11F5FF1
:100FF000143099F710E0F50181915F018D31D9F03E
:101000008831C9F08A518230B0F01F5F143099F7EF
:10101000812F2C960FB6F894DEBF0FBECDBFDF91A7
:10102000CF911F91FF90EF90DF90CF90BF90AF9046
:101030009F908F90089560E170E0812F0E94CB0413
:10104000A12EB12C83EE93E00197F1F742E870E016
:1010500060E0812F0E94AB036FEF812F0E94C803D5
:10106000B601C114D10491F4809100019091010165
:1010700001968115F0EC9F0708F458C09093010188
:10108000809300016091000170910101812F0E9405
:101090007A0386E0E8E0F1E0DE01119601900D921E
:1010A0008A95E1F7F70183818F778C8384818D8323
:1010B00085818E83B7016E5F7F4F812F0E94A403CD
:1010C000B601812F0E948F0326E030E0AE014F5F12
:1010D0005F4F66E070E0812F0E94690361E070E07D
:1010E000812F0E94CB0427E02A9DC0012B9D900DEB
:1010F00011249C0123533D4F7901F9011182108283
:1011000022E030E0AE01455F5F4F68E270E0812F82
:101110000E94B8078B859C85982789279827F70117
:101120009383828316821582148272CF80E090ECC2
:10113000A5CFCF92DF92EF92FF920F931F93CF93A1
:10114000DF9300D000D000D0CDB7DEB78C016B01AB
:101150007A01FC01808D843010F40E94DB0484E568
:1011600091E09A838983F60182819381A481B5817C
:101170008B839C83AD83BE83B701CE0101960E9411
:10118000C907F801808F8430A0F4F586E486128EBA
:10119000118E81E026960FB6F894DEBF0FBECDBF4C
:1011A000DF91CF911F910F91FF90EF90DF90CF9043
:1011B000089580E0EFCF5F926F927F928F929F921F
:1011C000AF92BF92CF92DF92EF92FF920F931F9355
:1011D000CF93DF9300D0CDB7DEB7982E6B013A01E5
:1011E000522E832E80E591E00E94870022E030E0BD
:1011F000AE014F5F5F4F60E270E0892D0E94B8073B
:10120000A980BA80BA24AB24BA2422E030E0AE012F
:101210004F5F5F4F60E270E0892D0E94B8078981BF
:101220009A81982789279827A816B90609F06DC0D2
:10123000092D10E067E0969EF0011124E353FD4F65
:10124000B582A482E52CF82CAE14BF0408F4750115
:1012500022E030E0AE014F5F5F4F64E270E0892D25
:101260000E94B80789819A81982789279827C80EF4
:10127000D91E960137704091ED02433309F047C003
:10128000085F1F4F102F0027110F110F110FC901F9
:10129000800F911F4733F1F1A9014E0D5F1D4130C1
:1012A0005840C0F160E078E05B01A21AB30AA501E2
:1012B000B3010E944302A7014A195B09B3016A0DF9
:1012C0007B1DC8010E944302CE0CDF1CD982CA825A
:1012D00022E030E0AE014F5F5F4F64E270E0892DA5
:1012E0000E946903C7010F900F90DF91CF911F916A
:1012F0000F91FF90EF90DF90CF90BF90AF909F90B5
:101300008F907F906F905F9008955C017ECF005F1B
:101310001F4FB8CFA701B301D5CFCF93DF93EC0117
:101320009A018E899F89AB01BC01888D0E94DB08E0
:101330002E893F89280F391F3F8B2E8BDF91CF914C
:101340000895FF920F931F93CF93DF9300D0CDB7F3
:10135000DEB7F82E22E030E0AE014F5F5F4F66E26D
:1013600070E00E94B80709811A8110270127102711
:1013700022E030E0AE014F5F5F4F66E270E08F2DFC
:101380000E94B80789819A8198278927982708178A
:10139000190749F4C8010F900F90DF91CF911F9169
:1013A0000F91FF9008958C01E3CF4F925F927F924F
:1013B0008F929F92AF92BF92CF92DF92EF92FF9265
:1013C0000F931F93CF93DF9300D0CDB7DEB7782E66
:1013D0006B014A01A82EB12C27E0829FC001112485
:1013E000FC01E353FD4F7F010081118180E591E015
:1013F0000E9487000815190554F4872D0E94A10941
:10140000F70126818C01021B11091183008301154C
:10141000110529F563E070E0872D0E94AE04843148
:1014200059F0882349F001E010E08C3111F410E00C
:1014300000E0119501951109C8010F900F90DF91FF
:10144000CF911F910F91FF90EF90DF90CF90BF90C1
:10145000AF909F908F907F905F904F9008958016EF
:1014600091060CF4840187E08A9DF0018B9DF00DBC
:101470001124E353FD4FE280F380C114D10451F1F4
:101480002701F7E05F22872D0E940603840D951D3A
:101490002091ED02273309F453C09801240D351D26
:1014A0002130384008F44CC020E038E0490184186D
:1014B0009508A401B6010E9423042601480C591C7A
:1014C0006801C818D908872D0E940603A601B20139
:1014D0000E942304E00EF11E87E08A9DF0018B9D9F
:1014E000F00D1124E353FD4FF382E282208131811C
:1014F000201B310B318320838681800F912F911D1A
:101500008A3F910510F4232BF1F487E08A9DF001C6
:101510008B9DF00D1124E353FD4F1682F982EA8270
:1015200022E030E0AE014F5F5F4F68E270E0872D50
:101530000E94690360E470E0872D0E94CB047CCF99
:10154000A801B601C5CF868377CFCF93DF93FC0187
:10155000218D328D2115310529F48FEF9FEFDF9119
:10156000CF910895EC01808D4217530708F0A9012F
:101570000E94D5091816190684F7298D3A8D281B63
:10158000390B3A8F298FEBCF0F931F93CF93DF93B4
:101590001F92CDB7DEB7FC01218D328D232B41F494
:1015A0008FEF9FEF0F90DF91CF911F910F910895D3
:1015B0008C0141E050E0BE016F5F7F4FFC01808DE8
:1015C0000E94D509181619065CF7F801818D928DD5
:1015D0000197928F818F898190E0E4CFDF92EF9223
:1015E000FF920F931F93CF93DF93CDB7DEB728976A
:1015F0000FB6F894DEBF0FBECDBF8C01D80159964F
:101600004D915C915A974115510551F0ED91FC9126
:10161000048CF58DE02D70E060E0C8010995EECFF7
:10162000F801D08CF7E0DF9EC00111249C01235308
:101630003D4F7901D9018D919C91892B59F148E059
:1016400050E0BE016F5F7F4FF801808D0E94D50989
:101650001816190694F5D801509684E0FE013196CB
:1016600001900D928A95E1F78D8190E0982F88275F
:101670002E81820F911DF801958B848B8F81282FED
:1016800030E0322F22278885820F932F911D928F71
:10169000818F13C080E591E00E9487008D2D0E940C
:1016A000A109D70116962C911697821B91098D934B
:1016B0009C93892B21F690E080E028960FB6F89451
:1016C000DEBF0FBECDBFDF91CF911F910F91FF9075
:1016D000EF90DF900895AF92BF92CF92DF92EF929A
:1016E000FF920F931F93CF93DF9300D000D000D0D1
:1016F000CDB7DEB79091ED0214E0992339F16B017B
:10170000082F80E591E00E9487009E012F5F3F4FE8
:101710007901590110E063E070E0812F0E94AE046E
:10172000F50181935F01882341F11F5F143099F720
:1017300010E0F70191917F019D31D1F09831C1F016
:101740009A519230A8F01F5F143099F7812F269696
:101750000FB6F894DEBF0FBECDBFDF91CF911F91C2
:101760000F91FF90EF90DF90CF90BF90AF900895D2
:1017700060E170E0812F0E94CB04E12EF12C83EE1A
:1017800093E00197F1F7402F70E060E0812F0E9415
:10179000AB036FEF812F0E94C803B601CD2889F4F7
:1017A000809100019091010101968115F0EC9F0755
:1017B00098F1909301018093000160910001709174
:1017C0000101812F0E947A0361E070E0812F0E9465
:1017D000CB0427E02E9DC0012F9D900D11249C016C
:1017E00023533D4F7901F9011182108222E030E04C
:1017F000AE014B5F5F4F68E270E0812F0E94B80737
:101800008D819E81982789279827F701938382836A
:101810001682158214829ACF80E090ECCACF0F9383
:101820001F93CF93DF93EC018B01888D843010F4EC
:101830000E94DB04B80183E00E946B0B888F843028
:1018400050F41D870C871A8E198E81E0DF91CF919D
:101850001F910F91089580E0F9CF6F927F928F9240
:101860009F92AF92BF92CF92DF92EF92FF920F932F
:101870001F93CF93DF93CDB7DEB7EC970FB6F894F5
:10188000DEBF0FBECDBF4C018B013A0184E591E074
:101890009A8389831C861B8648EE53E060E070E0E3
:1018A0004D875E876F87788B2AE231E03A872987F8
:1018B000988F8F8B198E1A8E1B8E1C8E24E029A375
:1018C00099AB88AB1AAA1BAA1CAA1DAA8091B303C4
:1018D0009091B403A091B503B091B6038EA39FA3DA
:1018E000A8A7B9A78B839C83AD83BE8318861F826C
:1018F000F80120E090E080E06AE03191332309F4C0
:1019000084C040ED430F4A3008F06EC0689FA001CC
:10191000699F500D1124CA01C097830F911D37FD97
:101920009A958F3F910549F340F34B815C816D811E
:101930007E818091BF039091C003A091C103B091BB
:10194000C203481759076A077B0709F44BC22FB730
:10195000F8948091C5029091C602A091C702B091FF
:10196000C8022FBF8F709927BC017C5FCE010996FA
:101970000E940F0C813009F038C284E591E09DA3EC
:101980008CA38B819C81AD81BE818EA39FA3A8A7D0
:10199000B9A745E350E0BE016C5D7F4FCE010996CB
:1019A0000E94ED03892B09F04EC010E000E0CE014B
:1019B00009960E94E7040130110559F1C801EC961F
:1019C0000FB6F894DEBF0FBECDBFDF91CF911F9150
:1019D0000F91FF90EF90DF90CF90BF90AF909F90CE
:1019E0008F907F906F9008953E3209F09ECF233004
:1019F00009F49BCFA2E3B0E0AC0FBD1FA20FB11D55
:101A00008C932F5F90E080E078CF233009F08DCF6A
:101A10008DABD401ED91FC910488F589E02D84E52E
:101A200091E09DA38CA38AA99BA9ACA9BDA98EA373
:101A30009FA3A8A7B9A7A301BE016C5D7F4FC401F6
:101A400009958C01BBCF2FB7F8948091C502909176
:101A5000C602A091C702B091C8022FBF98878F839A
:101A600042E050E0BE01695F7F4FCE0109960E94BF
:101A70008D0981E090E09DA38CA342E050E0BE017F
:101A80006C5D7F4FCE0109960E948D0980E091E048
:101A90009DA38CA342E050E0BE016C5D7F4FCE0160
:101AA00009960E948D091DA21CA242E050E0BE01D1
:101AB0006C5D7F4FCE0109960E948D0942E050E097
:101AC000BE016C5D7F4FCE0109960E948D0942E0F8
:101AD00050E0BE016C5D7F4FCE0109960E948D09DA
:101AE0007801D8018C91882311F18701F801819147
:101AF0006F01882311F08E32C1F45801AE18BF086F
:101B00001A141B0484F4AEAA41E050E0BE016A5CE2
:101B10007F4FCE0109960E948D09A501B701CE0124
:101B200009960E948D097601DCCF8601DFCF1EAABF
:101B300041E050E0BE016A5C7F4FCE0109960E94F1
:101B40008D0900E011E01DA30CA342E050E0BE01AE
:101B50006C5D7F4FCE0109960E948D091DA30CA3D9
:101B600042E050E0BE016C5D7F4FCE0109960E94BD
:101B70008D09CE0109960E940105892B09F415CF24
:101B800083E0E82EF12CD7C04B815C816D817E8192
:101B9000898D9A8DAB8DBC8D481759076A077B07D5
:101BA00009F01AC18D8D9E8DC59709F015C18AA1C6
:101BB0009BA10DEF1FEF0C970CF4B4C04CE050E06C
:101BC000BE016C5D7F4FCE0109960E94A50A8EA1D1
:101BD0009FA19827892798279BAF8AAF4F81588567
:101BE0002CA13DA14217530709F0F9C097FFF7C098
:101BF0008F7092700BEF1FEF892B09F093C0AAA48E
:101C0000BBA4BA24AB24BA240AEF1FEFA114B10479
:101C100009F488C010E000E088A599A598278927D5
:101C200098270817190708F541E050E0BE016A5CE3
:101C30007F4FCE0109960E94A50A4EA9442339F090
:101C400050E070E060E0CE0109960E94A50A8EA9DE
:101C50008111EACF44E050E070E060E0CE010996E7
:101C60000E94A50A0F5F1F4FD7CFD12CC12C41E096
:101C700050E0BE01645C7F4FCE0109960E94A50A28
:101C80004CAD842F807C09F084C0442339F050E0AF
:101C900070E060E0CE0109960E94A50A8CAD81112A
:101CA000E6CF42E050E0BE01685C7F4FCE0109966E
:101CB0000E94A50A42E050E0BE016A5C7F4FCE015F
:101CC00009960E94A50A44E050E070E060E0CE0171
:101CD00009960E94A50A42E050E0BE01665C7F4F73
:101CE000CE0109960E94A50A88AD99AD4AAD5BADBB
:101CF0008115914009F057C00EA91FA9102701278F
:101D000010270130110509F04EC04115544009F06B
:101D10005DC044E050E0BE016E5C7F4FCE0109968D
:101D20000E94A50AF1E0EF1AF10809F440CE0F3F36
:101D3000100709F03CCE8FB7F894A090C502B09080
:101D4000C602C090C702D090C8028FBFCE010996CC
:101D50000E94EE0A181619060CF416CF2FB7F89445
:101D60008091C5029091C602A091C702B091C802AD
:101D70002FBF8A199B09AC09BD0989389341A10578
:101D8000B10538F562E370E080E090E00E94CE009B
:101D9000DDCF41E050E070E060E0CE0109960E94A6
:101DA000A50A1CAE7BCF54274527542770E060E07E
:101DB000CE0109960E94A50AEFEFCE1ADE0AAC14F6
:101DC000BD0409F054CF06EF1FEFACCF07EF1FEFB4
:101DD000A9CF0FEF1FEFA6CF0EEF1FEFA3CF0CEF92
:101DE0001FEFA0CF0EEF1FEFE9CD10E000E0E6CD32
:101DF000CF93DF93EC0170E060E084E00E946B0B16
:101E00008C83DF91CF910895CF92DF92EF92FF9272
:101E10000F931F93CF93DF9300D0CDB7DEB76B0145
:101E20008A0180E591E00E94870022E030E0AE0167
:101E30004F5F5F4F64E270E080E00E94B807E98086
:101E4000FA80FE24EF24FE24A801B601C7010E94F7
:101E500043020E0D1F1D19830A8322E030E0AE01FC
:101E60004F5F5F4F64E270E080E00E94690360E2D0
:101E700070E080E00E94CB040F900F90DF91CF9133
:101E80001F910F91FF90EF90DF90CF900895FB018D
:101E900001900020E9F73197AF01461B570BDC0199
:101EA000ED91FC910280F381E02D09948F929F9235
:101EB000AF92BF92EF92FF920F931F93CF93DF9356
:101EC000CDB7DEB7A1970FB6F894DEBF0FBECDBF7A
:101ED0007C01FA01CB0119A2223008F42AE08E011C
:101EE0000F5D1F4F822E912CB12CA12CBF01A5019B
:101EF00094010E94F413F901CA016A300CF5605D87
:101F0000D8016E938D01232B242B252B79F790E09C
:101F100080E0109721F0BD01C7010E94470FA196F4
:101F20000FB6F894DEBF0FBECDBFDF91CF911F91EA
:101F30000F91FF90EF90BF90AF909F908F9008957A
:101F4000695CDECFCF93DF93BC0180EF92E00E940B
:101F5000470FEC0166E571E080EF92E00E94470FC9
:101F60008C0F9D1FDF91CF9108958F929F92AF921A
:101F7000BF92CF92DF92EF92FF920F931F93CF9376
:101F8000DF937C01EB016C0182E0C80ED11C47019C
:101F9000E5E08E0E911C10E000E0F60141916F012A
:101FA00050E070E060E02AE0CE010E94560F5C0134
:101FB000E881F9810190F081E02D6EE2CE01099572
:101FC0008A0D9B1D080F191FC814D90431F7F7019A
:101FD000458150E070E060E02AE0CE010E94560F9B
:101FE000800F911FDF91CF911F910F91FF90EF9084
:101FF000DF90CF90BF90AF909F908F9008951F92E9
:102000000F920FB60F9211242F933F938F939F93AC
:10201000AF93BF938091C5029091C602A091C70271
:10202000B091C8023091C40223E0230F2D3758F538
:102030000196A11DB11D2093C4028093C502909307
:10204000C602A093C702B093C8028091C9029091C2
:10205000CA02A091CB02B091CC020196A11DB11D84
:102060008093C9029093CA02A093CB02B093CC0292
:10207000BF91AF919F918F913F912F910F900FBE84
:102080000F901F90189526E8230F0296A11DB11DF1
:10209000D2CF1F920F920FB60F9211242F933F931E
:1020A0004F935F936F937F938F939F93AF93BF9360
:1020B000EF93FF9380EF92E00E947E01FF91EF91FA
:1020C000BF91AF919F918F917F916F915F914F9150
:1020D0003F912F910F900FBE0F901F9018951F9258
:1020E0000F920FB60F9211242F938F939F93EF931C
:1020F000FF93E0910003F09101038081E0910603DA
:10210000F091070382FD1BC09081809109038F5FCE
:102110008F7320910A03821741F0E0910903F0E0E8
:10212000E051FD4F958F80930903FF91EF919F91AF
:102130008F912F910F900FBE0F901F901895808157
:10214000F4CF1F920F920FB60F9211240F900FBE73
:102150000F901F901895E0EFF2E01382128248EE84
:1021600053E060E070E0448355836683778388E1C1
:1021700091E09183808385EC90E09587848784EC5F
:1021800090E09787868780EC90E0918B808B81EC44
:1021900090E0938B828B82EC90E0958B848B86EC25
:1021A00090E0978B868B118E128E138E148EEDE835
:1021B000F3E084E591E0918380831282138214829C
:1021C0001582E3E9F3E09183808312821382148203
:1021D0001582E9E9F3E091838083128213821482ED
:1021E0001582EFE9F3E091838083128213821482D7
:1021F0001582E5EAF3E091838083128213821482D0
:102200001582EBEAF3E091838083128213821482B9
:102210001582E7EBF3E091838083128213821482AC
:102220001582E1EBF3E091838083128213821482A2
:102230001582EDEBF3E09183808312821382148286
:102240001582E3ECF3E0918380831282138214827F
:102250001582ECEFF3E09183808312821382148263
:102260001582E6EFF3E0918380833AE032832CE13C
:1022700023832483A9E0A583E0EFF3E091838083A7
:10228000328323832483B6E1B583EAEEF3E09183BE
:102290008083328323832483A583E4EEF3E0918358
:1022A00080833283238324832FEF2583E9ECF3E0BB
:1022B0001382128244835583668377832AE231E056
:1022C0003183208397878687108A118A128A138A1E
:1022D00084E0808F0895CF93DF93CDB7DEB7E0978A
:1022E0000FB6F894DEBF0FBECDBF789484B5826080
:1022F00084BD84B5816084BD85B5826085BD85B5AA
:10230000816085BD80916E00816080936E00109227
:1023100081008091810082608093810080918100A2
:102320008160809381008091800081608093800033
:102330008091B10084608093B1008091B000816091
:102340008093B00080917A00846080937A008091BD
:102350007A00826080937A0080917A008160809315
:102360007A0080917A00806880937A001092C10090
:1023700004E511E01A8309838091F2039091F3033D
:10238000A091F403B091F5038B839C83AD83BE834E
:10239000CE0101960E947605E0910003F0910103C1
:1023A00082E08083E091FC02F091FD021082E091D6
:1023B000FE02F091FF028FEC808310920803E091FF
:1023C0000403F091050386E08083E0910203F0911D
:1023D0000303808180618083E0910203F091030315
:1023E000808188608083E0910203F0910303808103
:1023F00080688083E0910203F091030380818F7DE8
:10240000808369E571E080EF92E00E94470F1A83B4
:1024100009831B821C821D821E8280E591E00E943E
:10242000870044E050E0BE016D5F7F4F8FE090E099
:102430000E94230460EF72E0CE0101960E94B50F66
:1024400066E571E080EF92E00E94470F86E691E03A
:102450000E94A20F6E0181E2C80ED11C08E095E433
:10246000E92E20E4922E88248A9430E0A32E30E0D6
:10247000B32E68EE73E080E090E00E94CE0080EF23
:1024800092E00E945E01892B09F4D8C080EF92E0AF
:102490000E943C01813609F0DDC068EE73E080E007
:1024A00090E00E94CE008FE991E00E94A20F709010
:1024B000EC0387EB91E00E94A20F68EE73E080E0EE
:1024C00090E00E94CE0046E050E06FEF70E0CE0159
:1024D00001960E941C1486E0E2E0F1E0DE0117960E
:1024E00001900D928A95E1F70D8786E0F82EFE8621
:1024F0008FEC91E00E94A20F68EE73E080E090E024
:102500000E94CE001F8681E0888B098B1A8AFB8A85
:1025100014E01C8B1D8A8E8B82EF91E00E94A20F2B
:1025200068EE73E080E090E00E94CE00E2E0F1E02F
:10253000DE0157968F2D01900D928A95E1F7E0917B
:10254000F203F0E0DE015D96812F01900D928A95F5
:10255000E1F7F6011192FA94E9F7E72DF0E0DE01D8
:10256000979601900D921A95E1F780E192E00E9412
:10257000A20F68EE73E080E090E00E94CE0062E07F
:1025800070E084E00E946B0B182F80E591E00E94C0
:1025900087006091E6037091E703812F0E94A403F6
:1025A00069E070E0812F0E948F032AE230E0AE01E3
:1025B0004F5F5F4F70E060E0812F0E94DB0880E595
:1025C00091E00E94870060E270E0812F0E94CB04BE
:1025D00062E070E0812F0E94AE0484FD14C062E0CE
:1025E00070E0812F0E94AE0483FF08C068E1812F54
:1025F0000E94C8038CE292E00E94A20F80E591E065
:102600000E948700E5CF60E1812F0E94C80380E52A
:1026100091E00E94870060E170E0812F0E94CB046E
:1026200089E392E00E94A20F8BE492E00E94A20F45
:1026300068EE73E080E090E00E94CE00A114B10447
:1026400009F417CF0E946A01882309F407CF0E947A
:10265000000004CF803791F768EE73E080E090E0EF
:102660000E94CE0082E692E00E94A20F86E0EEE099
:10267000F1E0DE01119601900D928A95E1F786E076
:10268000E2E0F1E0DE01179601900D928A95E1F704
:102690000D87EF86188A198A1A8A1B8A1C8A1D8A56
:1026A0001E8A9F8A888E198E1A8EE091F203F0E0BE
:1026B00084E0DE015B9601900D928A95E1F7E0914E
:1026C000F803F0E084E0DE015F9601900D928A95B8
:1026D000E1F70BA31CA21DA21EA21FA218A619A6F9
:1026E0001AA681E48BA78CE68CA78FE68DA788E6D7
:1026F0008EA781E68FA781E288AB64E170E0CE010E
:102700000F960E944503998F8A8F68E070E0CE0192
:1027100083960E9445039DA38EA362E070E083E050
:102720000E946B0B182F80E591E00E94870060915A
:10273000E6037091E703812F0E94A40369E070E033
:10274000812F0E948F0320E330E0AE014F5F5F4F87
:1027500070E060E0812F0E94DB0880E591E00E943C
:10276000870060E270E0812F0E94CB0462E070E09D
:10277000812F0E94AE0484FD14C062E070E0812FBE
:102780000E94AE0483FF08C068E1812F0E94C80345
:102790008BE792E00E94A20F80E591E00E94870003
:1027A000E5CF60E1812F0E94C80380E591E00E949F
:1027B000870060E170E0812F0E94CB0489E892E0FD
:1027C0000E94A20F8091C2029091C3020196909341
:1027D000C3028093C20268EE73E080E090E00E9442
:1027E000CE0088EA92E022CFA1E21A2EAA1BBB1BE0
:1027F000FD010DC0AA1FBB1FEE1FFF1FA217B307CD
:10280000E407F50720F0A21BB30BE40BF50B661FE2
:10281000771F881F991F1A9469F7609570958095A6
:1028200090959B01AC01BD01CF010895EE0FFF1FF4
:102830000590F491E02D0994DC0101C06D934150A5
:0A2840005040E0F70895F894FFCF30
:10284A0000C0DEADBEEFFEED01005E000000ACBCD4
:10285A00329B286700000000A00100012D01ED0154
:10286A005E013C0150010000000015038D0920049F
:10287A0014032B03C40A87070F0C9908E704ED0316
:10288A002D0C0105EE0AA50AE503D503D103CD03F4
:10289A0000000000B50F0D0A0049502061646472FF
:1028AA006573733A200057616974696E6720636FB4
:1028BA006D6D616E643A20613A2073656E6441728F
:1028CA0070526571756573747A2C20703A2065634D
:1028DA00686F526571756573745265706C790073AF
:1028EA00656E64417270526571756573747A20738E
:1028FA00656E64696E670073656E644172705265D5
:10290A0071756573747A2073746172746564007387
:10291A00656E64417270526571756573747A20656B
:10292A00746865726E657420686561646572206F8B
:10293A006B0073656E64417270526571756573746C
:10294A007A2061727020686561646572206F6B001D
:10295A0073656E64417270526571756573747A201D
:10296A006172702064617461206F6B004152502063
:10297A0074696D656F75740A0041525020726571F1
:10298A00756573747A2073656E740073656E64413D
:10299A007270526571756573747A2073656E6465B9
:1029AA0064006563686F526571756573745265700A
:1029BA006C792073656E64696E670069636D702057
:1029CA0074696D656F75740A0049434D50204563FB
:1029DA00686F2052657175657374207061636B65E9
:1029EA00742073656E742E006563686F5265717525
:1029FA006573745265706C792073656E64656400E2
:00000001FF
