:020000040000FA
:100000000C945D000C9485000C9485000C946D0C90
:100010000C946D0C0C946D0C0C9485000C94850064
:100020000C9485000C9485000C9485000C9485003C
:100030000C9485000C9485000C9485000C9485002C
:100040000C94CB0B0C9485000C943B0C0C94150C6D
:100050000C9485000C9485000C9485000C9485000C
:100060000C9485000C94850000000008000201003B
:100070000003040700000000000000000000000072
:10008000250028002B0000000000240027002A0083
:10009000040404040404040402020202020203032E
:1000A0000303030301020408102040800102040836
:1000B0001020010204081020770C11241FBECFEF7E
:1000C000D8E0DEBFCDBF13E0A0E0B1E0ECE3F1E2A9
:1000D00002C005900D92AC33B107D9F724E0ACE330
:1000E000B3E001C01D92A136B207E1F710E0CDE503
:1000F000D0E004C02197FE010E948F10CC35D107BB
:10010000C9F70E94240D0C949C100C9400008CBD27
:100110009DBD089590E0FC01EC55FF4F2491805760
:100120009F4FFC018491882399F090E0880F991FDC
:10013000FC01EA57FF4FA591B491FC01E458FF4F31
:10014000859194918FB7F894EC91E22BEC938FBF4B
:1001500008953FB7F89480915F0390916003A09158
:100160006103B091620326B5A89B05C02F3F19F02B
:100170000196A11DB11D3FBFBA2FA92F982F882727
:10018000BC01CD01620F711D811D911D42E0660F02
:10019000771F881F991F4A95D1F708958F929F92D4
:1001A000AF92BF92CF92DF92EF92FF924B015C0130
:1001B0000E94A9006B017C010E94A9006C197D09B5
:1001C0008E099F09683E734081059105A8F321E0DF
:1001D000821A9108A108B10888EEC80E83E0D81EE3
:1001E000E11CF11C81149104A104B10429F7FF90D2
:1001F000EF90DF90CF90BF90AF909F908F90089539
:10020000AF92BF92CF92DF92EF92FF920F931F9324
:10021000CF93DF936C017B018B01040F151FEB0162
:100220005E01AE18BF08C017D10759F06991D60119
:10023000ED91FC910190F081E02DC6010995892B8B
:1002400079F7C501DF91CF911F910F91FF90EF904A
:10025000DF90CF90BF90AF900895FC01538D448DF7
:10026000252F30E0842F90E0821B930B541710F061
:10027000CF96089501970895FC01918D828D98176E
:1002800061F0A28DAE0FBF2FB11D5D968C91928D46
:100290009F5F9F73928F90E008958FEF9FEF089577
:1002A000FC01918D828D981731F0828DE80FF11D40
:1002B000858D90E008958FEF9FEF0895FC01918D5B
:1002C000228D892F90E0805C9F4F821B91098F7354
:1002D000992708958AE693E00E945E0121E0892B28
:1002E00009F420E0822F089580E090E0892B29F026
:1002F0000E946A0181110C9400000895FC01A48DF4
:10030000A80FB92FB11DA35ABF4F2C91848D90E037
:1003100001968F739927848FA689B7892C93A0891A
:10032000B1898C91837080648C93938D848D9813A4
:1003300006C00288F389E02D80818F7D8083089537
:10034000EF92FF920F931F93CF93DF93EC0181E025
:10035000888F9B8D8C8D98131AC0E889F9898081CC
:1003600085FF15C09FB7F894EE89FF896083E889FF
:10037000F98980818370806480839FBF81E090E0F1
:10038000DF91CF911F910F91FF90EF900895F62E7E
:100390000B8D10E00F5F1F4F0F731127E02E8C8D18
:1003A0008E110CC00FB607FCFACFE889F98980815D
:1003B00085FFF5CFCE010E947E01F1CFEB8DEC0FD2
:1003C000FD2FF11DE35AFF4FF0829FB7F8940B8F7A
:1003D000EA89FB8980818062CFCFCF93DF93EC01E4
:1003E000888D8823B9F0AA89BB89E889F9898C911D
:1003F00085FD03C0808186FD0DC00FB607FCF7CFD9
:100400008C9185FFF2CF808185FFEDCFCE010E94D8
:100410007E01E9CFDF91CF910895FC0120812EBDAF
:100420009B012150310941F051810DB407FEFDCFF0
:100430004EB55EBD4193F5CF61507109860F971F90
:100440000DB407FEFDCF2EB5FC0120830895E09189
:100450006403F0916503808190916303892B80830D
:100460000895E0916403F0916503908180916303A6
:1004700080958923808308958EBD00000DB407FE0A
:10048000FDCF8EB50895AF92BF92CF92DF92EF92DB
:10049000FF920F931F93CF93DF93CDB7DEB72897CB
:1004A0000FB6F894DEBF0FBECDBF8C017B016A0191
:1004B000809167038333E1F45801A40EB51EA016A2
:1004C000B10609F46FC00E94310280EF0E943C0225
:1004D000812F0E943C02802F0E943C020F5F1F4F21
:1004E000F70181917F010E943C020E942702E7CF21
:1004F0005B01A40EB51E8433C1F40E94310219833E
:100500000A838D2D80688B83CC8264E070E0CE01FD
:1005100001960E940D02AE14BF0409F441C0F70118
:1005200081917F010E943C02F6CF0E9431020F3F71
:10053000110509F028F419820A8384E08B830CC02A
:1005400017FD17C019820A8333E0169507953A956F
:10055000E1F7007E0C600B8386E0C816D104A0F59D
:10056000F701DE011496EA15FB0599F081918D9350
:10057000FACFC80126E0969587952A95E1F7807E07
:1005800019830A830115104C10F48461D7CF8C6154
:10059000D5CFB6016D5F7F4FCE0101960E940D024F
:1005A0000E942702C60128960FB6F894DEBF0FBE40
:1005B000CDBFDF91CF911F910F91FF90EF90DF9012
:1005C000CF90BF90AF90089563E070E0CE010196A8
:1005D0000E940D02F70181917F010E943C02AE143E
:1005E000BF04C1F7DDCFCF93DF931F92CDB7DEB746
:1005F000898341E050E0BE016F5F7F4F90E080E073
:100600000E9443020F90DF91CF910895CF93DF9323
:10061000DC01EB01FC0140E050E0BA01CF018A1B94
:100620009B0B8C179D0768F4208130E0322F222726
:100630009181290F311D420F531F611D711D32968B
:10064000EDCFCB01AA27BB270097A105B10539F053
:1006500066277727480F591F6A1F7B1FF2CF4095E7
:100660005095942F852FDF91CF910895DA01E09175
:100670006803F0E0FE2FEE27E60FF71F90E0982FBB
:100680008827A901BD018E0F9F1F0C944302CF93B1
:10069000DF9300D0CDB7DEB779836A8322E030E004
:1006A000AE014F5F5F4F60E170E00E9436030F9034
:1006B0000F90DF91CF910895CF93DF931F92CDB725
:1006C000DEB72091680330E0322F2227260F371F34
:1006D00090E0982F8827498341E050E0BE016F5F8A
:1006E0007F4F820F931F0E9443020F90DF91CF91A3
:1006F0000895462F62E070E00C945C030895FB01BE
:1007000001900020E9F73197AF01461B570BDC0140
:10071000ED91FC910280F381E02D099466E271E095
:100720008AE693E00C947F038F929F92AF92BF92E0
:10073000EF92FF920F931F93CF93DF93CDB7DEB766
:10074000A1970FB6F894DEBF0FBECDBF7C01FA01B2
:10075000CB0119A2223008F42AE08E010F5D1F4F51
:10076000822E912CB12CA12CBF01A50194010E94D5
:100770006D10F901CA016A300CF5605DD8016E9305
:100780008D01232B242B252B79F790E080E0109707
:1007900021F0BD01C7010E947F03A1960FB6F89416
:1007A000DEBF0FBECDBFDF91CF911F910F91FF90A4
:1007B000EF90BF90AF909F908F900895695CDECFCF
:1007C0008F929F92AF92BF92CF92DF92EF92FF9261
:1007D0000F931F93CF93DF937C01EB016C0182E0B9
:1007E000C80ED11C4701E5E08E0E911C10E000E020
:1007F000F60141916F0150E070E060E02AE0CE0127
:100800000E9494035C01E881F9810190F081E02D60
:100810006EE2CE0109958A0D9B1D080F191FC814A1
:10082000D90431F7F701458150E070E060E02AE03B
:10083000CE010E949403800F911FDF91CF911F91F1
:100840000F91FF90EF90DF90CF90BF90AF909F906F
:100850008F900895CF93DF93BC018AE693E00E94C6
:100860007F03EC010E948E038C0F9D1FDF91CF91BF
:100870000895BC018AE693E00C947F03AF92BF9287
:10088000CF92DF92EF92FF920F931F93CF93DF935C
:1008900000D000D0CDB7DEB78C016B017A0180911A
:1008A00067038333E9F45B016801C40ED51EC016EB
:1008B000D106A9F10E9431028FE00E943C02812FF3
:1008C0000E943C02802F0E943C020F5F1F4F80E07D
:1008D0000E943C02F50181935F010E942702E7CF4D
:1008E000843369F50E94310219830A838F2D8F7733
:1008F0008B83EC8264E070E0CE0101960E940D02D1
:10090000A70170E060E0C6010E949510E114F104B7
:1009100021F0B701C6010E940D020E942702C70103
:100920000F900F900F900F90DF91CF911F910F912B
:10093000FF90EF90DF90CF90BF90AF9008950E940E
:1009400031020F3F110509F030F419820A831B822E
:1009500063E070E0D1CF17FD0BC019820A8333E04A
:10096000169507953A95E1F7007E08600B83F0CF66
:10097000C80126E0969587952A95E1F7807E198330
:100980000A830115104C18F480618B83E1CF8861D4
:10099000FCCFCF93DF931F92CDB7DEB720916803D2
:1009A00030E0322F2227260F371F90E0982F88271C
:1009B00041E050E0BE016F5F7F4F820F931F0E94A6
:1009C0003E0489810F90DF91CF910895CF93C82F76
:1009D000462F61E070E00E945C0361E070E08C2FC4
:1009E0000E94C9048111F9CFCF91089562E070E0AF
:1009F0000C94C904CF93DF931F92CDB7DEB741E0CB
:100A000050E0BE016F5F7F4F90E080E00E943E04A7
:100A100089810F90DF91CF910895CF93DF93C4E147
:100A2000D0E00E94FA04882361F061E070E080E089
:100A300090E00E94CE002197A1F780E0DF91CF9156
:100A4000089581E0FBCFCF92DF92EF92FF920F9358
:100A50001F93CF93DF93CDB7DEB7C454D1090FB640
:100A6000F894DEBF0FBECDBFFC0182819381A481CB
:100A7000B58123968CAF9DAFAEAFBFAF239721E07A
:100A800023962FAF239723964CAD5DAD6EAD7FAD12
:100A900023974BAB5CAB6DAB7EAB89AF9AAFABAF83
:100AA000BCAF8DA79EA7AFA7B8AB28AB4DA55EA5E1
:100AB0006FA578A94FA358A769A77AA72EAB4BA912
:100AC0005CA96DA97EA949A35AA36BA37CA38B8FB4
:100AD0009C8FAD8FBE8F44E251E05C8B4B8B3FEF20
:100AE0003D8B3E8B3F8B188E5E874D872AA7CFA00C
:100AF000D8A4E9A4FAA4CF86D88AE98AFA8A2CA3D2
:100B000009A11AA12BA13CA109871A872B873C8731
:100B10005A8349838B839C83AD83BE838091690311
:100B20008111CBC060E372E080E090E00E94CE00D3
:100B3000DFB6F8940AE910E04EEAE42E40E0F42E25
:100B400080916603811142C0F8018491F70194916C
:100B5000E82FF0E0EE0FFF1FEA57FF4FA591B49189
:100B60008C91982321F5E2E7F0E08491F7019491CC
:100B7000F80124912223D9F0882359F0833009F415
:100B8000DDC008F0D0C0813009F4DEC0823009F445
:100B9000DFC0E22FF0E0EE0FFF1FE458FF4FA591FA
:100BA000B4918FB7F8942C91922B9C938FBF8AE0CD
:100BB0000E948A008CB580618CBD8CB580648CBD30
:100BC0008DE00E948A008BE00E948A00809166037B
:100BD0008F5F80936603DFBEF8010491E02FF0E0A1
:100BE000EE0FFF1FE458FF4F85919491909365039A
:100BF00080936403F701E490E09263038AE00E942B
:100C00008A000E94270280E591E00E94870084E329
:100C10008093670380E80E94F3020E940D058823F9
:100C200009F4A3C088E00E94F3020E94FA0488300D
:100C300009F09BC080E10E94F3020E94FA04803117
:100C400009F093C080E00E94F3020E94FA04182F7A
:100C500081118BC041E050E0BE016D5B7F4F8FE1A1
:100C600090E00E943E0424968FAD2497833009F0D3
:100C70007CC080E48093680342E06EE170E0812FE5
:100C80000E945C0342E06FE170E0812F0E945C03F0
:100C90001F5F143089F740E06EE170E0812F0E9401
:100CA0005C0340E06FE170E0812F0E945C031F5FF6
:100CB000183089F781E08093690380E591E00E9414
:100CC000870046E050E062E071E089E090E00E9439
:100CD000430244E050E0BE016D5F7F4F8FE090E043
:100CE0000E94430244E050E0BE01615F7F4F81E01B
:100CF00090E00E94430244E050E0BE016B5E7F4FF3
:100D000085E090E00E94430281E08C8789859A8586
:100D1000AB85BC8580932D0490932E04A0932F0463
:100D2000B093300491C08730B1F08830D1F0843076
:100D300009F02FCF809180008F7D03C080918000CB
:100D40008F778093800025CF84B58F7784BD21CFA6
:100D500084B58F7DFBCF8091B0008F778093B000FA
:100D600018CF8091B0008F7DF9CF87E38093670320
:100D700080E80E94F3020E940D05882339F188E083
:100D80000E94F3020E94FA04883001F580E10E947B
:100D9000F3020E94FA04182F8031C1F480E00E940F
:100DA000F3020E94FA04811111C041E050E0BE013B
:100DB0006D5B7F4F89E390E00E943E0424968FADE7
:100DC0002497843019F41093680374CF83E38093DD
:100DD000670380E80E94F3020E940D05882391F1C9
:100DE00080E10E94F3020E94FA04803159F582E109
:100DF0000E94F3020E94FA04823121F580E00E94F1
:100E0000F3020E94FA0481111DC084E080936803FC
:100E100015E525961FAF259741E050E0BE016C5BBC
:100E20007F4F8BE190E00E94430224961FAF2497EE
:100E300041E050E0BE016D5B7F4F8AE190E00E948F
:100E4000430238CF10926703CC5BDF4F0FB6F894A4
:100E5000DEBF0FBECDBFDF91CF911F910F91FF90ED
:100E6000EF90DF90CF900895DA01E0916803F0E011
:100E7000FE2FEE27E60FF71F90E0982F8827A90195
:100E8000BD018E0F9F1F0C943E045F926F927F9264
:100E90008F929F92AF92BF92CF92DF92EF92FF928A
:100EA0000F931F93CF93DF9300D0CDB7DEB7982E6B
:100EB0006B013A01522E832E80E591E00E9487005B
:100EC00022E030E0AE014F5F5F4F60E270E0892DBD
:100ED0000E943407A980BA80BA24AB24BA2422E045
:100EE00030E0AE014F5F5F4F60E270E0892D0E94FD
:100EF000340789819A81982789279827A816B906E7
:100F000009F06DC0092D10E067E0969EF0011124F4
:100F1000E25CFC4FB582A482E52CF82CAE14BF0431
:100F200008F4750122E030E0AE014F5F5F4F64E2EC
:100F300070E0892D0E94340789819A81982789273A
:100F40009827C80ED91E9601377040916703433326
:100F500009F047C0085F1F4F102F0027110F110F16
:100F6000110FC901800F911F4733F1F1A9014E0DF7
:100F70005F1D41305840C0F160E078E05B01A21A8B
:100F8000B30AA501B3010E944302A7014A195B09F4
:100F9000B3016A0D7B1DC8010E944302CE0CDF1C09
:100FA000D982CA8222E030E0AE014F5F5F4F64E237
:100FB00070E0892D0E943603C7010F900F90DF91DA
:100FC000CF911F910F91FF90EF90DF90CF90BF9046
:100FD000AF909F908F907F906F905F9008955C018D
:100FE0007ECF005F1F4FB8CFA701B301D5CFAF921F
:100FF000BF92CF92DF92EF92FF920F931F93CF9306
:10100000DF9300D000D000D0CDB7DEB7909167035A
:1010100014E0992339F17B01082F80E591E00E94CB
:1010200087009E012F5F3F4F6901590110E063E087
:1010300070E0812F0E94C904F50181935F0188232C
:1010400041F11F5F143099F710E0F60191916F01A3
:101050009D31D1F09831C1F09A519230A8F01F5FC4
:10106000143099F7812F26960FB6F894DEBF0FBE85
:10107000CDBFDF91CF911F910F91FF90EF90DF9047
:10108000CF90BF90AF90089560E170E0812F0E94F3
:10109000E604C12ED12C83EE93E00197F1F7402FA7
:1010A00070E060E0812F0E945C036FEF812F0E944F
:1010B0007903E114F104A1F1FD82EE8222E030E037
:1010C000AE014B5F5F4F64E070E0812F0E943603FA
:1010D00061E070E0812F0E94E60427E02C9DC001B2
:1010E0002D9D900D11249C01225C3C4F7901F9014A
:1010F0001182108222E030E0AE014B5F5F4F68E268
:1011000070E0812F0E9434078D819E819827892766
:101110009827F70193838283168215821482A2CFC7
:10112000809100019091010101968115F0EC9F07DB
:1011300058F09093010180930001809100019091FB
:1011400001019D838E83BACF80E090ECF2CFCF93E4
:10115000DF9300D0CDB7DEB722E030E0AE014F5FC5
:101160005F4F66E270E00E94340789819A81982778
:10117000892798270F900F90DF91CF9108955F9264
:101180006F927F928F929F92AF92BF92CF92DF9297
:10119000EF92FF920F931F93CF93DF9300D0CDB7C1
:1011A000DEB7582E4B017A01A82EB12C67E0869F3E
:1011B000F0011124E25CFC4F0081118180E591E097
:1011C0000E9487000E151F05BCF4852D0E94A708FC
:1011D0008C01852D0E94A70880179107C9F787E029
:1011E0008A9DF0018B9DF00D1124E25CFC4F8681FD
:1011F000081B1109118300830115110529F563E00E
:1012000070E0852D0E94C904843159F0882349F08B
:1012100001E010E08C3111F410E000E0119501952F
:101220001109C8010F900F90DF91CF911F910F917D
:10123000FF90EF90DF90CF90BF90AF909F908F90F6
:101240007F906F905F900895E016F1060CF487018F
:1012500087E08A9DF0018B9DF00D1124E25CFC4F2C
:10126000628073808114910479F193013770409109
:1012700067037501433309F05DC08CE0E80EF11C93
:10128000FE2CEE24FF0CFF0CFF0CC9018E0D9F1DE0
:10129000473309F453C0A801420F531F413058404F
:1012A00008F44CC060E078E06B01C21AD30AA601D2
:1012B000B4010E943E04A8014C195D09B4016C0DF3
:1012C0007D1DC7010E943E04600E711E87E08A9D4D
:1012D000F0018B9DF00D1124E25CFC4F7382628261
:1012E00020813181201B310B318320838681800F47
:1012F000912F911D8A3F910510F4232B11F587E062
:101300008A9DF0018B9DF00D1124E25CFC4F16824A
:1013100079826A8222E030E0AE014F5F5F4F68E27F
:1013200070E0852D0E94360360E470E0852D0E94F8
:10133000E60477CF68E1E60EF11CA2CFA801B40164
:10134000C1CF86836ECF4F925F926F927F928F92C2
:101350009F92AF92BF92CF92DF92EF92FF921F9334
:10136000CF93DF93CDB7DEB7AA970FB6F894DEBF61
:101370000FBECDBF7C01ADB6BEB689E291E00E9442
:101380002A0468EE73E080E090E00E94CE0086E0E0
:10139000E8E0F1E0DE01119601900D928A95E1F707
:1013A00086E0E2E0F1E0DE01179601900D928A9569
:1013B000E1F718E01D871E8682E491E00E942A046E
:1013C00068EE73E080E090E00E94CE0085E48F87B5
:1013D000188A198A8EE28A8B81E08B8B8C8B1D8A0E
:1013E0001E8A90E49F8B888F198E1A8E94E0EBE40E
:1013F000F4E0DE015B9601900D929A95E1F7F7011A
:10140000329694E0DE015F9601900D929A95E1F795
:101410001BA31CA21DA21EA28FA388A719A61AA6F1
:1014200064E170E0CE010F960E940603898F9A8FC7
:1014300068EE73E080E090E00E94CE0068E070E02B
:10144000CE0183960E9406038DA39EA362E070E006
:1014500084E00E94F707182F80E591E00E94870042
:10146000F7014281538124E030E06CE070E0812F8D
:101470000E94360367E070E0812F0E9447032AE252
:1014800030E0AE014F5F5F4F70E060E0812F0E945F
:10149000450780E591E00E94870060E270E0812FBF
:1014A0000E94E604812F0E94F60484FD12C0812F61
:1014B0000E94F60483FF08C068E1812F0E9479032F
:1014C00086E691E00E942A0480E591E00E94870070
:1014D000E9CF60E1812F0E947903812F0E94F604F9
:1014E00082FD12C0812F0E94F60483FF08C064E0D1
:1014F000812F0E94790386E691E00E942A0480E50C
:1015000091E00E948700E9CF64E0812F0E94790377
:10151000812F0E94A7086C01892BC9F18DB69EB658
:101520008DB79EB78C199D090FB6F8949EBF0FBE5C
:101530008DBFEDB7FEB731967F01A601BF01812FA8
:101540000E94BF08412C512C32014C145D04D0F490
:101550002AE0B301A2018AE693E00E949403F70116
:1015600041917F0150E070E060E020E18AE693E085
:101570000E9494030E948E03FFEF4F1A5F0A6F0AC6
:101580007F0AE3CF0FB6F8949EBE0FBE8DBE68EE05
:1015900073E080E090E00E94CE0060E170E0812F77
:1015A0000E94E6040FB6F894BEBE0FBEADBEAA966A
:1015B0000FB6F894DEBF0FBECDBFDF91CF911F9164
:1015C000FF90EF90DF90CF90BF90AF909F908F9063
:1015D0007F906F905F904F900895EF92FF920F93DE
:1015E0001F93CF93DF93CDB7DEB7AA970FB6F894CA
:1015F000DEBF0FBECDBF7C0182E891E00E942A04CD
:1016000068EE73E080E090E00E94CE0046E050E09B
:101610006FEF70E0CE0101960E94951086E0E2E047
:10162000F1E0DE01179601900D928A95E1F718E03E
:101630001D8706E00E878AE991E00E942A0468EE81
:1016400073E080E090E00E94CE001F8681E0888BEE
:10165000198B1A8A0B8B14E01C8B1D8A8E8B8DEBD9
:1016600091E00E942A0468EE73E080E090E00E941E
:10167000CE00E2E0F1E0DE01579601900D920A956E
:10168000E1F7EBE4F4E0DE015D96812F01900D922D
:101690008A95E1F746E050E06FEF70E0CE01819669
:1016A0000E949510F7013296DE01979601900D92F7
:1016B0001A95E1F78BED91E00E942A0468EE73E041
:1016C00080E090E00E94CE0062E070E084E00E9442
:1016D000F707182F80E591E00E948700F70142810B
:1016E000538124E030E06CE070E0812F0E943603EB
:1016F00069E070E0812F0E9447032AE230E0AE01EA
:101700004F5F5F4F70E060E0812F0E94450780E5EA
:1017100091E00E94870060E270E0812F0E94E60461
:10172000812F0E94F60484FD12C0812F0E94F604CE
:1017300083FF08C068E1812F0E94790387EF91E061
:101740000E942A0480E591E00E948700E9CF60E1D1
:10175000812F0E94790380E591E00E94870060E17B
:1017600070E0812F0E94E60484E092E00E942A0447
:1017700068EE73E080E090E00E94CE00AA960FB67B
:10178000F894DEBF0FBECDBFDF91CF911F910F91B7
:10179000FF90EF9008951F920F920FB60F921124B1
:1017A0002F933F938F939F93AF93BF9380915B034E
:1017B00090915C03A0915D03B0915E0330915A0358
:1017C00023E0230F2D3758F50196A11DB11D20935D
:1017D0005A0380935B0390935C03A0935D03B093E3
:1017E0005E0380915F0390916003A0916103B091CB
:1017F00062030196A11DB11D80935F039093600366
:10180000A0936103B0936203BF91AF919F918F91B9
:101810003F912F910F900FBE0F901F90189526E8C3
:10182000230F0296A11DB11DD2CF1F920F920FB6AA
:101830000F9211242F933F934F935F936F937F9356
:101840008F939F93AF93BF93EF93FF938AE693E0B9
:101850000E947E01FF91EF91BF91AF919F918F9177
:101860007F916F915F914F913F912F910F900FBE9C
:101870000F901F9018951F920F920FB60F92112480
:101880002F938F939F93EF93FF93E0917A03F091BF
:101890007B038081E0918003F091810382FD1BC076
:1018A0009081809183038F5F8F73209184038217CF
:1018B00041F0E0918303F0E0E659FC4F958F80936F
:1018C0008303FF91EF919F918F912F910F900FBE06
:1018D0000F901F9018958081F4CF1F920F920FB632
:1018E0000F9211240F900FBE0F901F901895EAE6EB
:1018F000F3E01382128288EE93E0A0E0B0E08483EC
:101900009583A683B78382E191E09183808385EC00
:1019100090E09587848784EC90E09787868780ECB9
:1019200090E0918B808B81EC90E0938B828B82ECAA
:1019300090E0958B848B86EC90E0978B868B118E54
:10194000128E138E148EE7E0F4E084E291E091832E
:1019500080831282138214821582EDE0F4E0918379
:1019600080831282138214821582E3E1F4E0918372
:1019700080831282138214821582E9E1F4E091835C
:1019800080831282138214821582EFE1F4E0918346
:1019900080831282138214821582E5E2F4E091833F
:1019A00080831282138214821582E1E3F4E0918332
:1019B00080831282138214821582EBE2F4E0918319
:1019C00080831282138214821582E7E3F4E091830C
:1019D00080831282138214821582EDE3F4E09183F6
:1019E00080831282138214821582EBE5F4E09183E6
:1019F00080831282138214821582E5E5F4E09183DC
:101A000080834AE042832CE12383248339E03583B9
:101A1000EFE4F4E09183808338E0328333833483CE
:101A20003583E9E4F4E09183808342832383248334
:101A300036E13583E3E4F4E09183808342832383BA
:101A400024838FEF85830895CF93DF93CDB7DEB7DF
:101A5000E0970FB6F894DEBF0FBECDBF789484B583
:101A6000826084BD84B5816084BD85B5826085BD9A
:101A700085B5816085BD80916E00816080936E0028
:101A8000109281008091810082608093810080911A
:101A900081008160809381008091800081608093CB
:101AA00080008091B10084608093B1008091B0008B
:101AB00081608093B00080917A00846080937A0086
:101AC00080917A00826080937A0080917A008160B0
:101AD00080937A0080917A00806880937A001092D7
:101AE000C10004E211E01A83098380914B049091B4
:101AF0004C04A0914D04B0914E048B839C83AD8324
:101B0000BE83CE0101960E942305E0917A03F091F5
:101B10007B0382E08083E0917603F091770310826B
:101B2000E0917803F09179038FEC80831092820327
:101B3000E0917E03F0917F0386E08083E0917C0357
:101B4000F0917D03808180618083E0917C03F0913E
:101B50007D03808188608083E0917C03F0917D0328
:101B6000808180688083E0917C03F0917D03808197
:101B70008F7D808368EE73E080E090E00E94CE006D
:101B800086E192E00E9439041A8309831B821C8239
:101B90001D821E8280E591E00E94870044E050E0B3
:101BA000BE016D5F7F4F8FE090E00E943E046AE6C9
:101BB00073E0CE0101960E94E0030E948E0368EE5E
:101BC00073E080E090E00E94CE0083E292E00E9409
:101BD0002A048FE292E00E942A048BE392E00E94A2
:101BE0002A0480E592E00E942A0485E692E00E94A1
:101BF0002A048AE792E00E942A048FE892E00E9479
:101C00002A0484EA92E00E942A0489EB92E00E946E
:101C10002A0494E2C92E91E0D92E01E020E0822E20
:101C200020E0922E8AE693E00E945E01892BF1F07B
:101C30008AE693E00E943C01813611F568EE73E07C
:101C400080E090E00E94CE00DA82C9828091570441
:101C500090915804A0915904B0915A048B839C83AD
:101C6000AD83BE83CE0101960E94ED0A81149104DA
:101C7000C9F20E946A01882361F20E940000C9CF64
:101C8000823689F468EE73E080E090E00E94CE0036
:101C9000DA82C9828091450490914604A09147045C
:101CA000B0914804DBCF8C36C9F468EE73E080E075
:101CB00090E00E94CE00DA82C98280915704909110
:101CC0005804A0915904B0915A048B839C83AD832E
:101CD000BE83CE0101960E94A309C8CF873789F43D
:101CE00068EE73E080E090E00E94CE00DA82C98264
:101CF0008091510490915204A0915304B0915404E6
:101D0000E4CF843709F0CEC168EE73E080E090E064
:101D10000E94CE00DCA6CBA6809151049091520483
:101D2000A0915304B09154048DA79EA7AFA7B8AB60
:101D30000E948E038EEC92E00E9439046AE673E002
:101D4000CE018B960E94E0038EED92E00E94390452
:101D50000E948E0368EE73E080E090E00E94CE0067
:101D6000212C312C2101239464E670E080E090E086
:101D70000E94CE0086E0E8E0F1E0DE0111960190DD
:101D80000D928A95E1F786E0E2E0F1E0DE01179638
:101D900001900D928A95E1F788E08D871E8664E6B2
:101DA00070E080E090E00E94CE0095E49F87188A62
:101DB000198AEEE2EA8B0B8B0C8B1D8A1E8A2F8A06
:101DC000088F198E1A8E84E0EBE4F4E0DE015B9656
:101DD00001900D928A95E1F784E0FE01BD96DE0147
:101DE0005F9601900D928A95E1F7F8E0FBA31CA2A3
:101DF0001DA21EA20FA308A719A61AA664E170E0EF
:101E0000CE010F960E940603898F9A8F64E670E0D8
:101E100080E090E00E94CE0068E070E0CE01839602
:101E20000E9406038DA39EA362E070E084E00E94FE
:101E3000F707182F80E591E00E9487004DA55EA569
:101E400024E030E06CE070E0812F0E94360367E010
:101E500070E0812F0E9447032AE230E0AE014F5F1D
:101E60005F4F70E060E0812F0E94450780E591E0C0
:101E70000E94870060E270E0812F0E94E604812FBB
:101E80000E94F60484FD0EC0812F0E94F60483FF99
:101E900004C068E1812F0E94790380E591E00E94EF
:101EA0008700EDCF60E1812F0E947903812F0E948E
:101EB000F60482FD0EC0812F0E94F60483FF04C049
:101EC00064E0812F0E94790380E591E00E94870001
:101ED000EDCF64E0812F0E947903812F0E94A70833
:101EE0005C01892B09F4C6C06DB67EB68DB79EB76E
:101EF0008A199B090FB6F8949EBF0FBE8DBFEDB730
:101F0000FEB731967F0164E670E080E090E00E94C9
:101F1000CE00A501B701812F0E94BF08F70184A15F
:101F20008B3011F08111A1C0F70185A181119DC0F5
:101F300064E670E080E090E00E94CE002AE0B2010A
:101F4000A1018AE693E00E9494038CEC92E00E9447
:101F5000390464E670E080E090E00E94CE008EEFED
:101F600092E00E943904F70144A150E070E060E083
:101F70002AE08AE693E00E9494038BE093E00E94BB
:101F80003904F70145A150E070E060E02AE08AE6FC
:101F900093E00E9494038CEC92E00E943904F701D4
:101FA000448D50E070E060E02AE08AE693E00E9411
:101FB00094038DE093E00E943904F701458D50E0D1
:101FC00070E060E02AE08AE693E00E9494038DE0EE
:101FD00093E00E943904F701468D50E070E060E024
:101FE0002AE08AE693E00E9494038DE093E00E9449
:101FF0003904F701478D50E070E060E02AE08AE69E
:1020000093E00E9494030E948E0364E670E080E0F7
:1020100090E00E94CE00F701948D8DA5981325C005
:10202000958D8EA5981321C0968D8FA598131DC0F0
:10203000978D88A9981319C064E670E080E090E05D
:102040000E94CE008FE093E00E942A0468EE73E0C5
:1020500080E090E00E94CE0060E170E0812F0E945D
:10206000E60490E080E00E949C100FB6F8947EBEDB
:102070000FBE6DBE64E670E080E090E00E94CE008E
:1020800060E170E0812F0E94E604FFEF2F1A3F0A03
:102090004F0A5F0A8EE1281631044104510409F009
:1020A00063CEE4CD803739F468EE73E080E090E0F1
:1020B0000E94CE00DBCD813759F468EE73E080E0FA
:1020C00090E00E94CE0084E293E00E942A04C9CFEF
:1020D0008DE293E00E942A04C9CDA1E21A2EAA1B28
:1020E000BB1BFD010DC0AA1FBB1FEE1FFF1FA217C8
:1020F000B307E407F50720F0A21BB30BE40BF50BC5
:10210000661F771F881F991F1A9469F7609570954D
:10211000809590959B01AC01BD01CF010895EE0F14
:10212000FF1F0590F491E02D0994DC0101C06D932F
:1021300041505040E0F70895F894FFCF00C0DEAD65
:10214000BEEFFEED001CA8DEAD0500000000A00102
:1021500000012D01ED015E013C0150010000000075
:10216000E0030D0A0073656E644563686F52657124
:10217000756573747A207374617274656400736535
:102180006E644563686F526571756573747A206516
:10219000746865726E657420686561646572206F2D
:1021A0006B0049434D50204563686F20526571753F
:1021B0006573742074696D656F75742E0A0073659C
:1021C0006E64417270526571756573747A207374B0
:1021D00061727465640073656E64417270526571FA
:1021E000756573747A2065746865726E65742068AD
:1021F0006561646572206F6B0073656E6441727017
:10220000526571756573747A2061727020686561BA
:10221000646572206F6B0073656E64417270526505
:1022200071756573747A20617270206461746120C5
:102230006F6B004152502074696D656F75740A00B0
:1022400041525020726571756573747A2073656EA2
:102250007400495020616464726573733A200020F1
:10226000204F7074696F6E73202000202D2D2D2D4E
:102270002D2D2D2D2D2000202061203A204152505F
:102280002072657175657374202020002020622003
:102290003A204152502062726F616463617374200E
:1022A0000020206C203A204C414E2070696E67203F
:1022B000202020202000202077203A2057414E2047
:1022C00070696E6720202020202000202074203A92
:1022D000207472616365726F757465202020200020
:1022E000202070203A20706F72747363616E20201A
:1022F0002020202000202071203A20717569742050
:10230000202020202020202020007472616365722C
:102310006F75746520746F202800292C20333020BD
:10232000686F7073206D61782C203432206279746C
:1023300065207061636B6574730020547970652F3C
:10234000436F64653A20002F002E0074726163654C
:10235000726F75746520636F6D706C657465640071
:102360005175697474696E6700496E76616C696451
:08237000206F7074696F6E00AC
:107E0000112484B714BE81FFF0D085E080938100F7
:107E100082E08093C00088E18093C10086E0809377
:107E2000C20080E18093C4008EE0C9D0259A86E02C
:107E300020E33CEF91E0309385002093840096BBD3
:107E4000B09BFECF1D9AA8958150A9F7CC24DD24C4
:107E500088248394B5E0AB2EA1E19A2EF3E0BF2EE7
:107E6000A2D0813461F49FD0082FAFD0023811F036
:107E7000013811F484E001C083E08DD089C08234E0
:107E800011F484E103C0853419F485E0A6D080C0E4
:107E9000853579F488D0E82EFF2485D0082F10E0AE
:107EA000102F00270E291F29000F111F8ED06801E7
:107EB0006FC0863521F484E090D080E0DECF843638
:107EC00009F040C070D06FD0082F6DD080E0C81688
:107ED00080E7D80618F4F601B7BEE895C0E0D1E017
:107EE00062D089930C17E1F7F0E0CF16F0E7DF06D8
:107EF00018F0F601B7BEE89568D007B600FCFDCFD4
:107F0000A601A0E0B1E02C9130E011968C91119780
:107F100090E0982F8827822B932B1296FA010C0160
:107F200087BEE89511244E5F5F4FF1E0A038BF0790
:107F300051F7F601A7BEE89507B600FCFDCF97BE46
:107F4000E89526C08437B1F42ED02DD0F82E2BD052
:107F50003CD0F601EF2C8F010F5F1F4F84911BD097
:107F6000EA94F801C1F70894C11CD11CFA94CF0C13
:107F7000D11C0EC0853739F428D08EE10CD085E9AC
:107F80000AD08FE07ACF813511F488E018D01DD067
:107F900080E101D065CF982F8091C00085FFFCCF94
:107FA0009093C60008958091C00087FFFCCF809118
:107FB000C00084FD01C0A8958091C6000895E0E648
:107FC000F0E098E1908380830895EDDF803219F02E
:107FD00088E0F5DFFFCF84E1DECF1F93182FE3DFCA
:107FE0001150E9F7F2DF1F91089580E0E8DFEE27F6
:047FF000FF270994CA
:027FFE00040479
:00000001FF
