:020000040000FA
:100000000C945D000C9485000C9485000C940D09F3
:100010000C940D090C940D090C9485000C9485002A
:100020000C9485000C9485000C9485000C9485003C
:100030000C9485000C9485000C9485000C9485002C
:100040000C946B080C9485000C94DB080C94B50898
:100050000C9485000C9485000C9485000C9485000C
:100060000C9485000C94850000000008000201003B
:100070000003040700000000000000000000000072
:10008000250028002B0000000000240027002A0083
:10009000040404040404040402020202020203032E
:1000A0000303030301020408102040800102040836
:1000B0001020010204081020170911241FBECFEFE1
:1000C000D8E0DEBFCDBF13E0A0E0B1E0ECE9F9E19C
:1000D00002C005900D92AA30B107D9F724E0AAE03A
:1000E000B3E001C01D92A331B207E1F710E0CDE506
:1000F000D0E004C02197FE010E94BF0CCC35D1078F
:10010000C9F70E94C4090C94CC0C0C9400008CBD5F
:100110009DBD089590E0FC01EC55FF4F2491805760
:100120009F4FFC018491882399F090E0880F991FDC
:10013000FC01EA57FF4FA591B491FC01E458FF4F31
:10014000859194918FB7F894EC91E22BEC938FBF4B
:1001500008953FB7F8948091110390911203A091F4
:100160001303B091140326B5A89B05C02F3F19F0C7
:100170000196A11DB11D3FBFBA2FA92F982F882727
:10018000BC01CD01620F711D811D911D42E0660F02
:10019000771F881F991F4A95D1F708958F929F92D4
:1001A000AF92BF92CF92DF92EF92FF924B015C0130
:1001B0000E94A9006B017C010E94A9006C197D09B5
:1001C0008E099F09683E734081059105A8F321E0DF
:1001D000821A9108A108B10888EEC80E83E0D81EE3
:1001E000E11CF11C81149104A104B10429F7FF90D2
:1001F000EF90DF90CF90BF90AF909F908F90089539
:10020000AF92BF92CF92DF92EF92FF920F931F9324
:10021000CF93DF936C017B018B01040F151FEB0162
:100220005E01AE18BF08C017D10759F06991D60119
:10023000ED91FC910190F081E02DC6010995892B8B
:1002400079F7C501DF91CF911F910F91FF90EF904A
:10025000DF90CF90BF90AF900895FC01538D448DF7
:10026000252F30E0842F90E0821B930B541710F061
:10027000CF96089501970895FC01918D828D98176E
:1002800061F0A28DAE0FBF2FB11D5D968C91928D46
:100290009F5F9F73928F90E008958FEF9FEF089577
:1002A000FC01918D828D981731F0828DE80FF11D40
:1002B000858D90E008958FEF9FEF0895FC01918D5B
:1002C000228D892F90E0805C9F4F821B91098F7354
:1002D000992708958CE193E00E945E0121E0892B2B
:1002E00009F420E0822F089580E090E0892B29F026
:1002F0000E946A0181110C9400000895FC01A48DF4
:10030000A80FB92FB11DA35ABF4F2C91848D90E037
:1003100001968F739927848FA689B7892C93A0891A
:10032000B1898C91837080648C93938D848D9813A4
:1003300006C00288F389E02D80818F7D8083089537
:10034000EF92FF920F931F93CF93DF93EC0181E025
:10035000888F9B8D8C8D98131AC0E889F9898081CC
:1003600085FF15C09FB7F894EE89FF896083E889FF
:10037000F98980818370806480839FBF81E090E0F1
:10038000DF91CF911F910F91FF90EF900895F62E7E
:100390000B8D10E00F5F1F4F0F731127E02E8C8D18
:1003A0008E110CC00FB607FCFACFE889F98980815D
:1003B00085FFF5CFCE010E947E01F1CFEB8DEC0FD2
:1003C000FD2FF11DE35AFF4FF0829FB7F8940B8F7A
:1003D000EA89FB8980818062CFCFCF93DF93EC01E4
:1003E000888D8823B9F0AA89BB89E889F9898C911D
:1003F00085FD03C0808186FD0DC00FB607FCF7CFD9
:100400008C9185FFF2CF808185FFEDCFCE010E94D8
:100410007E01E9CFDF91CF910895FC0120812EBDAF
:100420009B012150310941F051810DB407FEFDCFF0
:100430004EB55EBD4193F5CF61507109860F971F90
:100440000DB407FEFDCF2EB5FC0120830895E09189
:100450001603F0911703808190911503892B8083F7
:100460000895E0911603F091170390818091150390
:1004700080958923808308958EBD00000DB407FE0A
:10048000FDCF8EB50895AF92BF92CF92DF92EF92DB
:10049000FF920F931F93CF93DF93CDB7DEB72897CB
:1004A0000FB6F894DEBF0FBECDBF8C017B016A0191
:1004B000809119038333E1F45801A40EB51EA016F0
:1004C000B10609F46FC00E94310280EF0E943C0225
:1004D000812F0E943C02802F0E943C020F5F1F4F21
:1004E000F70181917F010E943C020E942702E7CF21
:1004F0005B01A40EB51E8433C1F40E94310219833E
:100500000A838D2D80688B83CC8264E070E0CE01FD
:1005100001960E940D02AE14BF0409F441C0F70118
:1005200081917F010E943C02F6CF0E9431020F3F71
:10053000110509F028F419820A8384E08B830CC02A
:1005400017FD17C019820A8333E0169507953A956F
:10055000E1F7007E0C600B8386E0C816D104A0F59D
:10056000F701DE011496EA15FB0599F081918D9350
:10057000FACFC80126E0969587952A95E1F7807E07
:1005800019830A830115104C10F48461D7CF8C6154
:10059000D5CFB6016D5F7F4FCE0101960E940D024F
:1005A0000E942702C60128960FB6F894DEBF0FBE40
:1005B000CDBFDF91CF911F910F91FF90EF90DF9012
:1005C000CF90BF90AF90089563E070E0CE010196A8
:1005D0000E940D02F70181917F010E943C02AE143E
:1005E000BF04C1F7DDCFCF93DF931F92CDB7DEB746
:1005F000898341E050E0BE016F5F7F4F90E080E073
:100600000E9443020F90DF91CF9108959B0140E03B
:1006100050E0BA01DC01ED91FD91CD014E0F5F1F5D
:10062000611D711D225031092230310598F7CB012F
:10063000AA27BB2766277727840F951FA61FB71FFA
:10064000AD0166277727840F951FA61FB71F8095DA
:1006500090950895DA01E0911A03F0E0FE2FEE275D
:10066000E60FF71F90E0982F8827A901BD018E0F94
:100670009F1F0C944302CF93DF931F92CDB7DEB739
:1006800020911A0330E0322F2227260F371F90E0E7
:10069000982F8827498341E050E0BE016F5F7F4F6C
:1006A000820F931F0E9443020F90DF91CF91089514
:1006B0000895AF92BF92CF92DF92EF92FF920F9385
:1006C0001F93CF93DF9300D000D0CDB7DEB78C015E
:1006D0006B017A01809119038333E9F45B016801AE
:1006E000C40ED51EC016D106A9F10E9431028FE0BA
:1006F0000E943C02812F0E943C02802F0E943C02FB
:100700000F5F1F4F80E00E943C02F50181935F0163
:100710000E942702E7CF843369F50E9431021983D2
:100720000A838F2D8F778B83EC8264E070E0CE019B
:1007300001960E940D02A70170E060E0C6010E94D0
:10074000C50CE114F10421F0B701C6010E940D02AD
:100750000E942702C7010F900F900F900F90DF911A
:10076000CF911F910F91FF90EF90DF90CF90BF90AE
:10077000AF9008950E9431020F3F110509F030F447
:1007800019820A831B8263E070E0D1CF17FD0BC092
:1007900019820A8333E0169507953A95E1F7007EB2
:1007A00008600B83F0CFC80126E0969587952A95BF
:1007B000E1F7807E19830A830115104C18F48061DB
:1007C0008B83E1CF8861FCCFCF93DF931F92CDB7AE
:1007D000DEB720911A0330E0322F2227260F371F71
:1007E00090E0982F882741E050E0BE016F5F7F4F77
:1007F000820F931F0E94590389810F90DF91CF913F
:100800000895CF93C82F462F61E070E00E943B030C
:1008100061E070E08C2F0E94E4038111F9CFCF9149
:100820000895CF93DF931F92CDB7DEB741E050E03C
:10083000BE016F5F7F4F90E080E00E945903898185
:100840000F90DF91CF910895CF93DF93C4E1D0E073
:100850000E941104882361F061E070E080E090E084
:100860000E94CE002197A1F780E0DF91CF910895FB
:1008700081E0FBCFCF92DF92EF92FF920F931F9315
:10088000CF93DF93CDB7DEB7C454D1090FB6F89438
:10089000DEBF0FBECDBFFC0182819381A481B581F3
:1008A00023968CAF9DAFAEAFBFAF239721E02396C9
:1008B0002FAF239723964CAD5DAD6EAD7FAD2397E3
:1008C0004BAB5CAB6DAB7EAB89AF9AAFABAFBCAFA4
:1008D0008DA79EA7AFA7B8AB28AB4DA55EA56FA50A
:1008E00078A94FA358A769A77AA72EAB4BA95CA9F3
:1008F0006DA97EA949A35AA36BA37CA38B8F9C8F60
:10090000AD8FBE8F44E251E05C8B4B8B3FEF3D8B54
:100910003E8B3F8B188E5E874D872AA7CFA0D8A429
:10092000E9A4FAA4CF86D88AE98AFA8A2CA309A175
:100930001AA12BA13CA109871A872B873C875A83D0
:1009400049838B839C83AD83BE8380911B0381117C
:10095000CBC060E372E080E090E00E94CE00DFB6A2
:10096000F8940AE910E04EEAE42E40E0F42E80917B
:100970001803811142C0F8018491F7019491E82F86
:10098000F0E0EE0FFF1FEA57FF4FA591B4918C9155
:10099000982321F5E2E7F0E08491F7019491F801C2
:1009A00024912223D9F0882359F0833009F4DDC043
:1009B00008F0D0C0813009F4DEC0823009F4DFC015
:1009C000E22FF0E0EE0FFF1FE458FF4FA591B49126
:1009D0008FB7F8942C91922B9C938FBF8AE00E9442
:1009E0008A008CB580618CBD8CB580648CBD8DE037
:1009F0000E948A008BE00E948A00809118038F5F1A
:100A000080931803DFBEF8010491E02FF0E0EE0FB1
:100A1000FF1FE458FF4F85919491909317038093A3
:100A20001603F701E490E09215038AE00E948A0021
:100A30000E94270280E591E00E94870084E3809372
:100A4000190380E80E94F3020E942404882309F419
:100A5000A3C088E00E94F3020E941104883009F0CC
:100A60009BC080E10E94F3020E941104803109F0D2
:100A700093C080E00E94F3020E941104182F81119C
:100A80008BC041E050E0BE016D5B7F4F8FE190E095
:100A90000E94590324968FAD2497833009F07CC0BF
:100AA00080E480931A0342E06EE170E0812F0E949F
:100AB0003B0342E06FE170E0812F0E943B031F5F28
:100AC000143089F740E06EE170E0812F0E943B0313
:100AD00040E06FE170E0812F0E943B031F5F183000
:100AE00089F781E080931B0380E591E00E948700F5
:100AF00046E050E062E071E089E090E00E9443024D
:100B000044E050E0BE016D5F7F4F8FE090E00E94B7
:100B1000430244E050E0BE01615F7F4F81E090E01E
:100B20000E94430244E050E0BE016B5E7F4F85E0CF
:100B300090E00E94430281E08C8789859A85AB858D
:100B4000BC858093DF039093E003A093E103B0930F
:100B5000E20391C08730B1F08830D1F0843009F0E1
:100B60002FCF809180008F7D03C0809180008F7790
:100B70008093800025CF84B58F7784BD21CF84B545
:100B80008F7DFBCF8091B0008F778093B00018CF1E
:100B90008091B0008F7DF9CF87E38093190380E8BF
:100BA0000E94F3020E942404882339F188E00E9405
:100BB000F3020E941104883001F580E10E94F302E3
:100BC0000E941104182F8031C1F480E00E94F302CA
:100BD0000E941104811111C041E050E0BE016D5B23
:100BE0007F4F89E390E00E94590324968FAD2497AC
:100BF000843019F410931A0374CF83E3809319039C
:100C000080E80E94F3020E942404882391F180E18D
:100C10000E94F3020E941104803159F582E10E9482
:100C2000F3020E941104823121F580E00E94F30258
:100C30000E94110481111DC084E080931A0315E500
:100C400025961FAF259741E050E0BE016C5B7F4FBA
:100C50008BE190E00E94430224961FAF249741E06D
:100C600050E0BE016D5B7F4F8AE190E00E9443023D
:100C700038CF10921903CC5BDF4F0FB6F894DEBF6C
:100C80000FBECDBFDF91CF911F910F91FF90EF90DD
:100C9000DF90CF900895DA01E0911A03F0E0FE2F83
:100CA000EE27E60FF71F90E0982F8827A901BD01D6
:100CB0008E0F9F1F0C9459037F928F929F92AF9239
:100CC000BF92CF92DF92EF92FF920F931F93CF9339
:100CD000DF9300D0CDB7DEB7782E6B014A01590102
:100CE00080E591E00E94870022E030E0AE014F5F96
:100CF0005F4F60E270E0872D0E944B0609811A81E8
:100D000010270127102722E030E0AE014F5F5F4F30
:100D100060E270E0872D0E944B0689819A819827B6
:100D2000892798270817190709F062C075010A1565
:100D30001B0508F4780122E030E0AE014F5F5F4F01
:100D400064E270E0872D0E944B0689819A81982782
:100D500089279827C80ED91E96013770409119032C
:100D6000072D10E0433309F045C0085F1F4F102FD7
:100D70000027110F110F110FC901800F911F473369
:100D8000E1F1A9014E0D5F1D41305840B0F160E026
:100D900078E05B01A21AB30AA501B4010E944302E4
:100DA000A7014A195B09B4016A0D7B1DC8010E94A5
:100DB0004302CE0CDF1CD982CA8222E030E0AE01B1
:100DC0004F5F5F4F64E270E0872D0E942A03C701E6
:100DD0000F900F90DF91CF911F910F91FF90EF90A7
:100DE000DF90CF90BF90AF909F908F907F900895AD
:100DF0008C0189CF005F1F4FBACFA701B401D7CFB5
:100E0000AF92BF92CF92DF92EF92FF920F931F9318
:100E1000CF93DF9300D000D000D0CDB7DEB7909154
:100E2000190314E0992331F17B01082F80E591E04B
:100E30000E948700CE0101966C015C0110E063E026
:100E400070E0812F0E94E403F50181935F01882304
:100E500041F11F5F143099F710E0F60191916F0195
:100E60009D31D1F09831C1F09A519230A8F01F5FB6
:100E7000143099F7812F26960FB6F894DEBF0FBE77
:100E8000CDBFDF91CF911F910F91FF90EF90DF9039
:100E9000CF90BF90AF90089560E170E0812F0E94E5
:100EA000010483EE93E00197F1F7402F70E060E0DA
:100EB000812F0E943B034FEF62E070E0812F0E9480
:100EC0003B03E114F104E1F0FD82EE8222E030E028
:100ED000AE014B5F5F4F64E070E0812F0E942A03F8
:100EE00061E070E0812F0E94010422E030E0AE0159
:100EF0004B5F5F4F68E270E0812F0E944B06BACFD4
:100F0000809100019091010101968115F0EC9F07FD
:100F100058F090930101809300018091000190911D
:100F200001019D838E83D2CF80E090ECF2CFFB0154
:100F300001900020E9F73197AF01461B570BDC0108
:100F4000ED91FC910280F381E02D09948F929F92A4
:100F5000AF92BF92EF92FF920F931F93CF93DF93C5
:100F6000CDB7DEB7A1970FB6F894DEBF0FBECDBFE9
:100F70007C01FA01CB0119A2223008F42AE08E018B
:100F80000F5D1F4F822E912CB12CA12CBF01A5010A
:100F900094010E949D0CF901CA016A300CF5605D54
:100FA000D8016E938D01232B242B252B79F790E00C
:100FB00080E0109721F0BD01C7010E949707A1961C
:100FC0000FB6F894DEBF0FBECDBFDF91CF911F915A
:100FD0000F91FF90EF90BF90AF909F908F900895EA
:100FE000695CDECFCF93DF93BC018CE193E00E947C
:100FF0009707EC0166E271E08CE193E00E949707AD
:101000008C0F9D1FDF91CF91089589E291E00E949E
:10101000F20785E391E00E94F20781E491E00E94EB
:10102000F20783E591E00E94F20785E691E00E94D5
:10103000F20787E791E00E94F20789E891E00C94BB
:10104000F2078F929F92AF92BF92CF92DF92EF9270
:10105000FF920F931F93CF93DF937C01EB016C0101
:1010600082E0C80ED11C4701E5E08E0E911C10E015
:1010700000E0F60141916F0150E070E060E02AE08D
:10108000CE010E94A6075C01E881F9810190F08100
:10109000E02D6EE2CE0109958A0D9B1D080F191FE8
:1010A000C814D90431F7F701458150E070E060E0E1
:1010B0002AE0CE010E94A607800F911FDF91CF91F9
:1010C0001F910F91FF90EF90DF90CF90BF90AF9066
:1010D0009F908F9008951F920F920FB60F92112438
:1010E0002F933F938F939F93AF93BF9380910D0363
:1010F00090910E03A0910F03B091100330910C0357
:1011000023E0230F2D3758F50196A11DB11D209323
:101110000C0380930D0390930E03A0930F03B093E1
:1011200010038091110390911203A0911303B091C9
:1011300014030196A11DB11D809311039093120316
:10114000A0931303B0931403BF91AF919F918F911C
:101150003F912F910F900FBE0F901F90189526E88A
:10116000230F0296A11DB11DD2CF1F920F920FB671
:101170000F9211242F933F934F935F936F937F931D
:101180008F939F93AF93BF93EF93FF938CE193E083
:101190000E947E01FF91EF91BF91AF919F918F913E
:1011A0007F916F915F914F913F912F910F900FBE63
:1011B0000F901F9018951F920F920FB60F92112447
:1011C0002F938F939F93EF93FF93E0912C03F091D4
:1011D0002D038081E0913203F091330382FD1BC027
:1011E0009081809135038F5F8F7320913603821732
:1011F00041F0E0913503F0E0E45EFC4F958F809381
:101200003503FF91EF919F918F912F910F900FBE1A
:101210000F901F9018958081F4CF1F920F920FB6F8
:101220000F9211240F900FBE0F901F901895ECE1B4
:10123000F3E01382128288EE93E0A0E0B0E08483B2
:101240009583A683B78382E191E09183808385ECC7
:1012500090E09587848784EC90E09787868780EC80
:1012600090E0918B808B81EC90E0938B828B82EC71
:1012700090E0958B848B86EC90E0978B868B118E1B
:10128000128E138E148EE9EBF3E084E291E09183E9
:1012900080831282138214821582EFEBF3E0918334
:1012A00080831282138214821582E5ECF3E091832D
:1012B00080831282138214821582EBECF3E0918317
:1012C00080831282138214821582E1EDF3E0918310
:1012D00080831282138214821582E7EDF3E09183FA
:1012E00080831282138214821582E3EEF3E09183ED
:1012F00080831282138214821582EDEDF3E09183D4
:1013000080831282138214821582E9EEF3E09183C6
:1013100080831282138214821582EFEEF3E09183B0
:1013200080831282138214821582EDE0F4E09183AF
:1013300080831282138214821582E7E0F4E09183A5
:1013400080834AE042832CE12383248339E0358380
:10135000E1E0F4E09183808338E0328333833483A7
:101360003583EBEFF3E091838083428323832483EF
:1013700036E13583E5EFF3E0918380834283238375
:1013800024838FEF85830895CF93DF93CDB7DEB7A6
:10139000E8970FB6F894DEBF0FBECDBF789484B542
:1013A000826084BD84B5816084BD85B5826085BD61
:1013B00085B5816085BD80916E00816080936E00EF
:1013C00010928100809181008260809381008091E1
:1013D0008100816080938100809180008160809392
:1013E00080008091B10084608093B1008091B00052
:1013F00081608093B00080917A00846080937A004D
:1014000080917A00826080937A0080917A00816076
:1014100080937A0080917A00806880937A0010929D
:10142000C10004E211E01A8309838091FD039091C9
:10143000FE03A091FF03B09100048B839C83AD83D6
:10144000BE83CE0101960E943A04E0912C03F091F4
:101450002D0382E08083E0912803F091290310821C
:10146000E0912A03F0912B038FEC808310923403D8
:10147000E0913003F091310386E08083E0912E0308
:10148000F0912F03808180618083E0912E03F091A1
:101490002F03808188608083E0912E03F0912F03D9
:1014A000808180688083E0912E03F0912F038081FA
:1014B0008F7D808368EE73E080E090E00E94CE0034
:1014C0006BE971E08CE193E00E9497071A8309832E
:1014D0001B821C821D821E8280E591E00E94870093
:1014E00044E050E0BE016D5F7F4F8FE090E00E94CE
:1014F00059036CE173E0CE0101960E94210866E277
:1015000071E08CE193E00E94970768EE73E080E061
:1015100090E00E94CE000E94050894E2E92E91E03E
:10152000F92E08E020E0C22E20E0D22E8CE193E0DC
:101530000E945E01892B09F4ECC08CE193E00E94CB
:101540003C01813609F0F1C068EE73E080E090E084
:101550000E94CE00FAAAE9AA8091090490910A0497
:10156000A0910B04B0910C048BAB9CABADABBEABAC
:1015700088EA91E00E94F20768EE73E080E090E074
:101580000E94CE0046E050E06FEF70E0CE01019681
:101590000E94C50C86E0E2E0F1E0DE0117960190C2
:1015A0000D928A95E1F70D8786E0B82EBE8680EC15
:1015B00091E00E94F20768EE73E080E090E00E9404
:1015C000CE001F8681E0888B098B1A8ABB8A14E0C3
:1015D0001C8B1D8A8E8B83EE91E00E94F20768EED1
:1015E00073E080E090E00E94CE00E2E0F1E0DE01F6
:1015F000579601900D92BA94E1F7EDEFF3E0DE011A
:101600005D96812F01900D928A95E1F746E050E0BA
:101610006FEF70E0CE0181960E94C50CFE01F3963B
:10162000DE01979601900D921A95E1F781E092E024
:101630000E94F20768EE73E080E090E00E94CE0026
:1016400062E070E084E00E940007182F80E591E0DE
:101650000E9487004BA95CA924E030E06CE070E0B8
:10166000812F0E942A031FAA89E088AF22E030E080
:10167000AE01495C5F4F60E170E0812F0E942A0358
:101680002AE230E0AE014F5F5F4F70E060E0812FF3
:101690000E945C0680E591E00E94870060E270E0B5
:1016A000812F0E94010462E070E0812F0E94E40318
:1016B00084FD16C062E070E0812F0E94E40383FF86
:1016C0000AC048E162E070E0812F0E943B038DE197
:1016D00092E00E94F20780E591E00E948700E3CF4C
:1016E00040E162E070E0812F0E943B0380E591E0E1
:1016F0000E94870060E170E0812F0E9401048AE26D
:1017000092E00E94F20768EE73E080E090E00E94B1
:10171000CE00C114D10409F409CF0E946A018823C4
:1017200009F4FBCE0E940000F8CE803709F0EEC02D
:1017300068EE73E080E090E00E94CE00FAAAE9AA89
:101740008091030490910404A0910504B0910604D3
:101750008BAB9CABADABBEAB8CE392E00E94F207CF
:1017600068EE73E080E090E00E94CE0086E0E8E062
:10177000F1E0DE01119601900D928A95E1F786E085
:10178000E2E0F1E0DE01179601900D928A95E1F713
:101790000D871E8685E592E00E94F20768EE73E0F1
:1017A00080E090E00E94CE0085E48F87188A198A35
:1017B00080E38A8B1B8A1C8A1D8A1E8A80E48F8B99
:1017C00081E0888F198E1A8E84E0EDEFF3E0DE0160
:1017D0005B9601900D928A95E1F784E0FE01F39605
:1017E000DE015F9601900D928A95E1F789E792E01C
:1017F0000E94F2070BA31CA21DA21EA21FA218A6E4
:1018000019A61AA687E992E00E94F20781E48BA745
:101810008CE68CA78FE68DA788E68EA781E68FA73A
:1018200081E288AB64E170E0CE010F960E9406036E
:10183000998F8A8F68E070E0CE0183960E9406033C
:101840009DA38EA362E070E084E00E940007182F41
:1018500080E591E00E9487004BA95CA924E030E07C
:101860006CE070E0812F0E942A031FAA87E088AFF6
:1018700022E030E0AE01495C5F4F60E170E0812F13
:101880000E942A0320E330E0AE014F5F5F4F70E01B
:1018900060E0812F0E945C0680E591E00E94870055
:1018A00060E270E0812F0E94010462E070E0812F0D
:1018B0000E94E40384FD16C062E070E0812F0E9464
:1018C000E40383FF0AC048E162E070E0812F0E94D8
:1018D0003B0387EB92E00E94F20780E591E00E94D3
:1018E0008700E3CF40E162E070E0812F0E943B037C
:1018F00080E591E00E94870060E170E0812F0E9406
:10190000010483ED92E00E94F20703CF813771F466
:1019100068EE73E080E090E00E94CE0082EF92E0FB
:101920000E94F20790E080E00E94CC0C8BEF92E0E6
:101930000E94F2070E940508ECCEA1E21A2EAA1B13
:10194000BB1BFD010DC0AA1FBB1FEE1FFF1FA2176F
:10195000B307E407F50720F0A21BB30BE40BF50B6C
:10196000661F771F881F991F1A9469F760957095F5
:10197000809590959B01AC01BD01CF010895EE0FBC
:10198000FF1F0590F491E02D0994DC0101C06D93D7
:1019900041505040E0F70895F894FFCF00C0DEAD0D
:1019A000BEEFFEEDACBC329B286700000000A0013A
:1019B00000012D01ED015E013C015001000000001D
:1019C00021080D0A0020204F7074696F6E7320206B
:1019D00000202D2D2D2D2D2D2D2D2D200020206191
:1019E000203A2070696E672041525020202000204C
:1019F0002070203A2070696E672049434D502020A6
:101A000000202074203A207472616365726F7574CF
:101A1000652000202073203A20706F727473636118
:101A20006E20202000202071203A207175697420DA
:101A300020202020202000495020616464726573BA
:101A4000733A200073656E644172705265717565FA
:101A500073747A20737461727465640073656E6464
:101A6000417270526571756573747A20657468652A
:101A7000726E657420686561646572206F6B0073B7
:101A8000656E64417270526571756573747A206118
:101A9000727020686561646572206F6B0073656E9B
:101AA00064417270526571756573747A20617270E9
:101AB0002064617461206F6B004152502074696D25
:101AC000656F75740A0041525020726571756573B7
:101AD000747A2073656E740073656E644563686F15
:101AE000526571756573747A20737461727465647C
:101AF0000073656E644563686F52657175657374D4
:101B00007A2065746865726E6574206865616465C5
:101B100072206F6B0073656E644563686F52657108
:101B2000756573747A2069702068656164657220D8
:101B30006F6B0073656E644563686F5265717565A0
:101B400073747A2069636D702068656164657220C2
:101B50006F6B0049434D50204563686F205265719B
:101B6000756573742074696D656F75742E0A00490C
:101B7000434D50204563686F2052657175657374DD
:101B8000207061636B65742073656E742E005175EF
:101B9000697474696E6700496E76616C6964206F60
:061BA0007074696F6E0015
:107E0000112484B714BE81FFF0D085E080938100F7
:107E100082E08093C00088E18093C10086E0809377
:107E2000C20080E18093C4008EE0C9D0259A86E02C
:107E300020E33CEF91E0309385002093840096BBD3
:107E4000B09BFECF1D9AA8958150A9F7CC24DD24C4
:107E500088248394B5E0AB2EA1E19A2EF3E0BF2EE7
:107E6000A2D0813461F49FD0082FAFD0023811F036
:107E7000013811F484E001C083E08DD089C08234E0
:107E800011F484E103C0853419F485E0A6D080C0E4
:107E9000853579F488D0E82EFF2485D0082F10E0AE
:107EA000102F00270E291F29000F111F8ED06801E7
:107EB0006FC0863521F484E090D080E0DECF843638
:107EC00009F040C070D06FD0082F6DD080E0C81688
:107ED00080E7D80618F4F601B7BEE895C0E0D1E017
:107EE00062D089930C17E1F7F0E0CF16F0E7DF06D8
:107EF00018F0F601B7BEE89568D007B600FCFDCFD4
:107F0000A601A0E0B1E02C9130E011968C91119780
:107F100090E0982F8827822B932B1296FA010C0160
:107F200087BEE89511244E5F5F4FF1E0A038BF0790
:107F300051F7F601A7BEE89507B600FCFDCF97BE46
:107F4000E89526C08437B1F42ED02DD0F82E2BD052
:107F50003CD0F601EF2C8F010F5F1F4F84911BD097
:107F6000EA94F801C1F70894C11CD11CFA94CF0C13
:107F7000D11C0EC0853739F428D08EE10CD085E9AC
:107F80000AD08FE07ACF813511F488E018D01DD067
:107F900080E101D065CF982F8091C00085FFFCCF94
:107FA0009093C60008958091C00087FFFCCF809118
:107FB000C00084FD01C0A8958091C6000895E0E648
:107FC000F0E098E1908380830895EDDF803219F02E
:107FD00088E0F5DFFFCF84E1DECF1F93182FE3DFCA
:107FE0001150E9F7F2DF1F91089580E0E8DFEE27F6
:047FF000FF270994CA
:027FFE00040479
:00000001FF
